:020000040800F2
:1000000028180020E50100086914000811140008F0
:1000100065140008F11200086B26000800000000BB
:10002000000000000000000000000000B1220008F5
:10003000F51200080000000073020008C523000844
:10004000FF010008FF010008FF010008FF01000890
:10005000FF010008FF010008FF010008FF01000880
:10006000FF010008FF010008FF010008FF01000870
:10007000FF010008FF010008FF010008FF01000860
:10008000FF010008FF010008FF010008FF01000850
:10009000FF010008FF010008FF010008FF01000840
:1000A000FF010008FF010008FF010008FF01000830
:1000B000FF010008FF010008FF010008FF01000820
:1000C000FF010008FF010008FF010008FF01000810
:1000D000FF01000841240008FF010008FF0100089B
:1000E000FF010008FF010008FF010008FF010008F0
:1000F000FF010008FF010008FF010008FF010008E0
:10010000FF010008FF010008FF010008FF010008CF
:10011000FF010008FF010008FF010008FF010008BF
:10012000FF010008FF010008FF010008FF010008AF
:1001300000F002F800F047F80AA090E8000C8244B2
:100140008344AAF10107DA4501D100F03CF8AFF28F
:10015000090EBAE80F0013F0010F18BFFB1A43F0A5
:1001600001031847DC2C0000FC2C0000103A24BFCF
:1001700078C878C1FAD8520724BF30C830C144BF0C
:1001800004680C607047000000230024002500264E
:10019000103A28BF78C1FBD8520728BF30C148BFEA
:1001A0000B607047662902F07E85002070471FB5FE
:1001B00000F04CFB04000020002102F009FCE0608C
:1001C0001FBD10B510BD00F05DFC1146FFF7EFFF3D
:1001D00002F062FB00F07BFC03B4FFF7F2FF03BC0C
:1001E00002F060FA0948804709480047FEE7FEE749
:1001F000FEE7FEE7FEE7FEE7FEE7FEE7FEE7FEE7D7
:1002000004480549054A064B70470000E1230008F1
:10021000310100082812002028180020281400208E
:1002200028140020EFF3108072B6704780F3108816
:100230007047204C204D25604FF0000484F309885E
:100240001E4C4FF0010525701D4C4FF08055256068
:1002500062B6FEE730B41A4C4FF08055256030BCD2
:10026000704730B4164C4FF08055256030BC704755
:1002700000BF72B6EFF3098028B1203880E8F00F94
:1002800010490968086000B50F4880475DF804EB25
:100290000E480F490A7802700A480E490A6802603F
:1002A000106890E8F00F203080F309884EF0040EBB
:1002B00062B6704720ED00E00000FFFF5E00002006
:1002C00004ED00E064000020AD1A00085300002097
:1002D000540000206C000020704700000FB4044957
:1002E00010B503AA029800F09FFA10BC5DF814FB49
:1002F0001C0000202DE9F0474FF0000A8946044613
:10030000C0F820A02046E1688847002876D025283C
:1003100006D0D4E901219047206A401C2062F1E711
:10032000E168204600258847C4F81CA0064600273F
:10033000C4F818A02A2E09D0304602F0ACF938B320
:1003400004EB8708303EC8F8186019E059F8041B20
:10035000204604EB87029161E1688847012F064639
:1003600018D1E069002820DA25F020051DE0D8F832
:10037000180000EB800006EB40003038C8F8180089
:100380002046E1688847064602F085F90028EED14C
:10039000012F0AD02E2E08D12046E16888477F1C05
:1003A0000646022F45F02005C4DBA069002803DAC9
:1003B000404245F00105A061E80701D025F0100595
:1003C000B6B1A6F14100192802D8203645F40065DF
:1003D0004A463146204625604D46FFF7E3FE58B1B8
:1003E000012806D0ED1D25F0070000F1080989E776
:1003F00004E005F1040985E730468AE7206ABDE894
:10040000F087704770477047704770472DE9FF4F7E
:100410000C461E464FF0FF378BB0D2E90001DDF8E5
:1004200060800A908A46C1F30A5505B93D4600210D
:1004300008464FF00000BAF1000F00F4400005DA62
:1004400000EB80004FF4400101EA50004FEA905960
:10045000B9F1010F00DDB9460A9850EA4A000ED002
:1004600044F61050A5F2FF3545432F14B8F1000FA4
:100470001ED07542291E1EDDC9F100021CE0B8F134
:10048000010F4FF0000001D0302103E0F24305E0FE
:100490002154401CB042FBDB304600220021215495
:1004A0000B99C1F80880C1E900200FB0BDE8F08FBA
:1004B000BD1B6D1CDEE74A4600DA694206A800F063
:1004C00067FA06AB93E8070003AB83E807005046E2
:1004D0000A9900F045FB8DE80700A0F500501F3891
:1004E00000900398002D0ADD42F21F014A4608449D
:1004F000002303A90390684600F0AEFD09E0A0F5D3
:1005000000504A461F38002303A90390684600F0B4
:10051000B8FD8DE807000004000C03D04FF0FF3059
:10052000410800E01046B8F1000F03D0002200920D
:1005300015461EE0751E05D400F08CF93032625568
:100540006D1EF9D5B3460122084302D000227F1C5C
:1005500004E02078302801D100227F1E002A09976C
:1005600084D01DE0112D07DA00F074F930326255A5
:100570006D1C50EA0102F5D1084302D00098C8B1C1
:100580000EE00021681E05E0235C625C6354225487
:10059000401E491C8142F7DBAB46A81B401E099058
:1005A000002004F80B000B98099AC0F80880C0E9F5
:1005B000002B7AE711264FF0000857E72DE9F04F9E
:1005C00088460446D21D22F0070191B0D1E900010E
:1005D000CDE90A0102F04BF802460B98C00F01D09A
:1005E0002D2007E02068810701D52B2002E0202183
:1005F00001EAC000032A099001D0072A05DB03465F
:100600004146204600F084F90BE12078800601D5B0
:10061000E06900E00620B8F1650F814606D0B8F128
:10062000660F18D0B8F1670F70D131E00020B9F132
:10063000110F009001DB112301E009F101030AAA67
:1006400001A90CA8FFF7E2FEDDE90C70002609F114
:100650000105834647E001204B4600904FF00047DC
:100660000AAA01A90CA8FFF7D1FEDDE90DB00C998B
:100670005D46002610B909F101000D18B9EB05001F
:1006800003D4C0F1FF3609F10105A5EB09002BE009
:10069000B9F1010F01DA4FF001090020B9F1110F92
:1006A0000090484601DD112300E003460AAA01A993
:1006B0000CA8FFF7ABFEDDE90C704D460026834623
:1006C000207800070AD4AB4500DA5D4601A8012D69
:1006D00004DD411911F8011C302907D04F4502DA19
:1006E00017F1040F04DA012082460FE06D1EEEE7D9
:1006F000002F02DCED1B3E4403E0781CA84200DD25
:100700007D1CB81B00F1010A4FF00047207800075C
:1007100003D4AA4501DB4FF0FF3A0021B7F1004FA7
:100720000DF143088DF8431024D002202B23002F15
:1007300001DA7F422D230A21021EA0F1010000DC14
:100740005FB197FBF1FC97FBF1F201FB1C7C1746B4
:100750000CF1300C08F801CDEEE7A8F101000370B0
:100760002188090501D5452100E06521A0F1010896
:1007700000F8011C09980FA9A1EB0807FF1D00B1A3
:100780000120411901EBEA70A1693844081A401EA2
:10079000A0612078C00602D42046AFF300800998FB
:1007A00028B1D4E901219047206A401C20622078BA
:1007B000C00622D52046AFF300801EE0002E04DBE9
:1007C000B34502DD01A8805D00E03020D4E90121BD
:1007D0009047206A401C2062761CAAF101005FEA63
:1007E000000A0AD100F032F8C0680168405CD4E920
:1007F00001219047206A401C2062281EA5F10105B6
:10080000DCDC07E0D4E9012118F8010B9047206AED
:10081000401C2062381EA7F10107F3DC2046AFF32D
:100820000080032011B041E6074B70B50D467B44B4
:1008300000F05BF80446284600F01CF910B14FF0B8
:10084000FF3070BD204670BDF71F000000487047A4
:10085000E811002030B5B0F10A024FEA900E71F1B4
:1008600000034EEA817EB0EB0E0061EB91014FEA8E
:10087000101E4EEA017E10EB0E0041EB11114FEA03
:10088000102E4EEA016E10EB0E0041EB11214FEAE3
:10089000104E4EEA014E10EB0E0041EB1141401894
:1008A00041F100014FEAD00040EA41704FEAD10126
:1008B00010EB80054FEA810444EA907444EB010494
:1008C0006D1944EB0404521BA3414FF0000348BFD1
:1008D0000A3200D530BD401C41F1000130BD00009E
:1008E00001694A1C02610878704700B58FB0CDE9F4
:1008F00001310021059105497944CDE903101146E4
:100900006846FFF7F7FC0FB000BD0000E5FFFFFFF2
:100910002DE9F0411F46044603260168072A01F429
:10092000006004DB08B116A505E016A503E008B1D8
:1009300015A500E015A521F010002060A069C01EDB
:10094000A0610FB1401EA0612046AFF300804FB1FF
:10095000D4E9012138469047206A401C2062C01C1F
:10096000206206E0206AFAE7D4E9012115F8010BBC
:100970009047761EF8D22046AFF30080BDE8F081A4
:100980004E414E006E616E00494E4600696E660033
:100990002DE9F047814616468AB0354878440DC89F
:1009A0008DE80D0032487844801C03AC0DC884E803
:1009B0000D0041F69B300844372190FBF1F290FB8B
:1009C000F1F5A5F1800501FB12041B3C02D5644240
:1009D000012000E00020DFF898A080460027FA44BC
:1009E000AAF1BE0A0EE0E0070AD03246684607EBDD
:1009F000470101230AEB810100F043FB8DE807006A
:100A000064107F1C002CEED1194F7F44AE3F19E0DB
:100A1000E80715D007EB04100DF1180A90E80E0056
:100A20008AE80E00C068F04201D198190890324659
:100A3000012306A903A800F024FB03AB83E8070009
:100A40006D10641C002DE3D14FF00103324669465E
:100A5000B8F1000F03A802D000F0FEFA01E000F0A8
:100A600010FBC9E90001C9F808200AB0BDE8F08709
:100A700088240000007B00F0800070470048704729
:100A8000C81100207546FFF7F9FFAE46050069461C
:100A9000534620F00700854618B020B5FFF7B0FB9D
:100AA000BDE820404FF000064FF000074FF000086F
:100AB0004FF0000B21F00701AC46ACE8C009ACE8F0
:100AC000C009ACE8C009ACE8C0098D46704710B554
:100AD0000446AFF300802046BDE81040FFF77CBB22
:100AE0004FF0013C50F8042B51F8043B9A4221D1BD
:100AF000A2EB0C03934313EACC1317D150F8042B49
:100B000051F8043B9A4215D1A2EB0C03934313EA2C
:100B1000CC130BD150F8042B51F8043B9A4209D165
:100B2000A2EB0C03934313EACC13DBD04FF000008D
:100B3000704700BFD01A01BAB1FA81F101F0180173
:100B400022FA01F0CB40C1F12001DBB2C0B2C01AE1
:100B50002CFA01F3D11A914311EAC311E6D170477F
:100B60005FEA400C08BF91F0000F4FEA8C234FEA78
:100B7000C12243EA51514FEA1C5018BF00F5F04022
:100B80004FEA300018BF41F000415FEA6C5C00F0B2
:100B90002980BCF1FF3F08BF40F080407047130C34
:100BA00006BF12044FF0100C4FF0000C130E04BFE0
:100BB00012020CF1080C130F04BF12010CF1040C0B
:100BC000930F04BF92000CF1020CD30F04BF52002C
:100BD0000CF1010C11464FF00002A0F11F00A0EB38
:100BE0000C00704711F0004F08BF704731F0004112
:100BF0003FF4D5AF0B0C06BF09044FF0100C4FF0BB
:100C0000000C0B0E04BF09020CF1080C0B0F04BF03
:100C100009010CF1040C8B0F04BF89000CF1020CCC
:100C2000CB0F04BF49000CF1010CCCF12003A0EB69
:100C30000C0022FA03F302FA0CF241EA030100F17C
:100C40000100704720F07F4C80EA030023F07F47CB
:100C5000ACEB070303F57C5300F0004003F1FF0306
:100C60002DE980494FEA154B09B44FEA144325EAB0
:100C70000B4E24EA03480FF2042606EB132749081B
:100C80003E785FEA320203FB0667C7F5000707FB01
:100C900006F64FEA54374FEAD64606F1020607FB3E
:100CA000066CCCF1005C4FEA1C472CEA074C07FBB2
:100CB00006F40CFB06F504EB15464FEA961634BF16
:100CC00000204FF000404FEAD13706FB07FC4FEA07
:100CD0001C4C0CFB0BF7D21B03FB0CF761EB070161
:100CE0000CFB0EF7B0EB074072EB17420CFB08F75A
:100CF00034BFA2EB0742B2EB074261EB17414FEA68
:100D00000C444FEA910706FB07FC4FEA1C4C0CFB16
:100D10000BF7B0EBC74072EB573203FB0CF734BF55
:100D2000A2EBC742B2EBC74261EB57310CFB0EF7A7
:100D3000B0EBC70072EB57720CFB08F734BFA2EBA5
:100D4000C702B2EBC70261EB5771039F4FEA8161A3
:100D500041EA921104EBCC044FEAD1374FEA8262A8
:100D600006FB07FC42EA90124FEA80604FEA1C4CF7
:100D70000CFB0BF7D21B03FB0CF761EB07010CFB21
:100D80000EF7B0EB074072EB17420CFB08F734BFCD
:100D9000A2EB0742B2EB074261EB17414FEA8C55D9
:100DA0004FEA910704EB9C2406FB07FC4FEA1C4C1E
:100DB0000CFB0BF7B0EBC74072EB573203FB0CF7A1
:100DC00034BFA2EBC742B2EBC74261EB57310CFB19
:100DD0000EF7B0EBC70072EB57720CFB08F734BF8D
:100DE000A2EBC702B2EBC70261EB577115EB4C25C2
:100DF0004FEA816141EA92114FEA82624FEAD137AC
:100E000042EA901206FB07FC44F100044FEA8060BE
:100E10004FEA1C4C0CFB0BF7D21B03FB0CF761EBEE
:100E200007010CFB0EF7B0EB074072EB17420CFB0F
:100E300008F734BFA2EB0742B2EB074261EB174160
:100E400015EB1C154FEA813141EA92414FEA82329B
:100E500042EA90424FEA80304FEA0C7644F10004B7
:100E600048EA03434EEA0B484FF0000EB2EB080C81
:100E700071EB030724BF624639464EEB0E0E4FF06E
:100E8000000B0018524149414BEB0B0BB2EB080C25
:100E900071EB03077BF1000B24BF624639464EEB32
:100EA0000E0E4FF0000B0018524149414BEB0B0B5B
:100EB000B2EB080C71EB03077BF1000B24BF624619
:100EC00039464EEB0E0E51EA020718BF46F00106F6
:100ED00016EB0E7655F1000254F1000103D5BDE882
:100EE0008901BDE80088BDE88901BDE80048B61960
:100EF000524141EB0101A3F10103704780807F7EE5
:100F00007D7C7B7A7978777676757473727171707F
:100F10006F6E6E6D6C6C6B6A6A6968686766666531
:100F20006464636362616160605F5F5E5E5D5D5CBF
:100F30005C5B5B5A5A595958585757565655555530
:100F40005454535352525251515050504F4F4F4E90
:100F50004E4D4D4D4C4C4C4B4B4B4A4A4A494949DE
:100F60004848484747474746464645454544444420
:100F7000444343434342424242414141002B9C4649
:100F800030D477002BD01CB54FEA370703B44FF0AD
:100F900010004FF01001BAF1000F06D0BCF1000FA5
:100FA000DCBF40F0080040F008014FF000000FBC2B
:100FB000BDE810400BF1010BBBF1010F08BF5FEA68
:100FC000170722BF12F1010211F101014FF0004198
:100FD00043F1000300F0004043EA00007047F9D3FA
:100FE0005708D0E746EA064613F1400F4FEA164687
:100FF0001FDD13F1200FDFBF16430A460021203307
:101000005B42BED0C3F1200746EA064602FA07F764
:101010004FEA164646EA0706C3F1200722FA03F212
:1010200001FA07F721FA03F14FF0000342EA070241
:10103000A7E746EA020646EA06464FEA164646EAA9
:101040000106BCBF46EA0646360C4FF000034FF0DF
:1010500000024FF0000194E72DE9804C9A46934638
:1010600070B491E8380007C831EA400C48BF34EA50
:10107000430C03D5FFF7E6FDFFF780FFF0BCBDE8AA
:10108000008C2DE9804C9A46934670B491E8380064
:1010900007C810F0804F08BF13F0804F03D100F055
:1010A00005F8FFF76BFFF0BCBDE8008C20F07F4730
:1010B00080EA030023F07F4C07EB0C03A3F57C537D
:1010C00000F00040A3F1FE0392F0000F00F0B380A7
:1010D00095F0000F00F077802DE901494FEA1140AB
:1010E0004FEA144621EA004800FB06FC24EA0647C2
:1010F00008FB06F607FB08F800FB07F718EB0648A5
:101100004CEB164C4FEA124B18EB07484FEA1546CA
:101110004CEB174022EA0B4E0BFB06FC25EA064778
:101120000EFB06F607FB0EFE0BFB07F71EEB064E4B
:101130004CEB164C4FF000061EEB074E4CEB174BDA
:1011400018EB0B0840F1000018EB0E0B58EB0008F1
:1011500040F100008F1A4FF000013CBFC943661BED
:1011600014BFB5EB040C00213CBFC943F61B4FEA8A
:1011700017444EEA8E0E27EA04454FEA1C4704FB4B
:1011800007622CEA074C05FB07F70CFB05F604FB8E
:101190000CFC16EB074642EB174216EB0C4642EBF3
:1011A0001C421BEB060658EB0202414146EA9E0632
:1011B00001D5BDE80189B619524141EB0101A3F106
:1011C0000103BDE801894FEA14454FEA114724EABB
:1011D000054621EA074C05FB07F406FB07F70CFB65
:1011E00006F105FB0CFC11EB074144EB17444FEAF9
:1011F000124711EB0C4144EB1C4422EA074C05FB5F
:1012000007F206FB07F70CFB06F605FB0CFC16EBDA
:10121000074642EB174216EB0C4642EB1C456A1898
:1012200054F1000148BF7047B619524141EB01012A
:10123000A3F10103704795F0000F37D04FEA114238
:101240004FEA144721EA024624EA074C02FB07F161
:1012500006FB07F70CFB06F402FB0CFC14EB07443F
:1012600041EB17414FEA154714EB0C4441EB1C418D
:1012700025EA074C02FB07F506FB07F70CFB06F611
:1012800002FB0CFC16EB074645EB174516EB0C462C
:1012900045EB1C42121951F1000148BF7047B619C5
:1012A000524141EB0101A3F1010370474FEA14459C
:1012B0004FEA114724EA054621EA074C05FB07F1EE
:1012C00006FB07F70CFB06F24FF0000605FB0CFCD3
:1012D00012EB074241EB174112EB0C4251EB1C4160
:1012E00048BF7047921841EB0101A3F10103704719
:1012F00000BFFEE770472DE9F041024600250026B9
:10130000002000230024002791F803C00CF00F05F3
:1013100091F803C00CF0100CBCF1000F03D091F851
:1013200002C04CEA050591F800C0BCF1000F31D0B5
:10133000146800202BE04FF0010C0CFA00F3B1F818
:1013400000C00CEA03069E4220D183004FF00F0C30
:101350000CFA03F7BC4305FA03FC4CEA040491F8C9
:1013600003C0BCF1280F06D14FF0010C0CFA00FCB1
:10137000C2F814C00AE091F803C0BCF1480F05D1CF
:101380004FF0010C0CFA00FCC2F810C0401C0828F9
:10139000D1D31460B1F800C0BCF1FF0F34DD546844
:1013A00000202EE000F1080C4FF0010808FA0CF3C1
:1013B000B1F800C00CEA03069E4221D183004FF031
:1013C0000F0C0CFA03F7BC4305FA03FC4CEA0404C7
:1013D00091F803C0BCF1280F05D100F1080C08FA00
:1013E0000CF8C2F8148091F803C0BCF1480F07D183
:1013F00000F1080C4FF0010808FA0CF8C2F8108050
:10140000401C0828CED35460BDE8F08101617047CC
:1014100000BFFEE708B50121242000F0CFFE4FF405
:101420008070ADF8000010208DF8030003208DF8C7
:10143000020069460948FFF75EFF4FF480710748D4
:10144000FFF7E4FF0420ADF8000069460448FFF709
:1014500052FF04210248FFF7D9FF08BD00080140F0
:101460000014014000BFFEE77047000070B5002186
:1014700000230F22C47804B3154C246804F4E064FC
:10148000C4F5E064210AC1F10403CA40447804FAB7
:1014900003F184781440214309010E4C0678A155CC
:1014A000047804F01F050124AC4005786D11AD00EF
:1014B00005F1E025C5F8004109E0047804F01F05B6
:1014C0000124AC40044D0678761145F8264070BDE5
:1014D0000CED00E000E400E080E100E0024901439F
:1014E000024A1160704700000000FA050CED00E0B0
:1014F00010B500F013F800F0E5FB00F00DFC00F073
:101500002DFC00F0B5FB00F087FB00F0C1FC00F003
:1015100065FC00F08BFC00F002F810BD70477047CE
:1015200006480078012808D105480078FF2804D231
:1015300003480078401C0249087070475E00002094
:101540005100002010B500241A480078012830D13D
:10155000FEF768FE04461848007820B11648007867
:10156000401E1549087014480078F8B913480078EF
:10157000E0B900F0EFFC12481249097850F8210058
:10158000114908600F4800781049097888420DD049
:101590000D480068806B401C0B49096888630C4843
:1015A0000068401C0A490860FEF75BFE2046FEF713
:1015B0003DFE10BD5E0000205100002052000020C2
:1015C000600C0020540000206C000020530000201C
:1015D0003800002010B500240B480078012811D1F4
:1015E000FEF720FE04460948007840B90848007814
:1015F000FF2804D206480078401C054908702046A0
:10160000FEF714FE10BD00005E0000205100002017
:101610005200002010B5002413480078012821D181
:10162000FEF700FE044611480078C0B10F4800786C
:10163000401E0E4908700846007860B90C480078D2
:1016400028B92046FEF7F2FD00F04AFC0AE02046E9
:10165000FEF7ECFD06E02046FEF7E8FD02E020463E
:10166000FEF7E4FD10BD00005E00002052000020E7
:101670005100002010B50B48007890B900F06AFCCA
:10168000094800780949087009480749097850F85D
:101690002100084908600846006807490860FEF70D
:1016A000C8FD10BD5E000020540000205300002043
:1016B000600C00206C0000206400002010B50024A5
:1016C000022000F0F5F9FEF7ADFD044600200B49BD
:1016D00008602046FEF7AAFD142000F0E9F9FEF7A5
:1016E000A1FD044605480068054908600120054938
:1016F00008702046FEF79AFD10BD00006000002033
:101700004800002050000020704700002DE9FE4FE7
:1017100006460F4690461C464FF00009FEF782FD34
:1017200081461F48007828B14846FEF77FFD3C20DF
:10173000BDE8FE8F1B4850F8240060BB012019490A
:1017400041F824004846FEF771FD00234246394621
:10175000304600F009F982460020009001900346CF
:10176000024651460290204600F00AFC054635B973
:101770000D48007801280CD100F0B2FB09E0FEF71B
:1017800051FD81460020074941F824004846FEF7F4
:101790004DFD2846CCE74846FEF748FD2820C7E720
:1017A00051000020600C00205E0000202DE9F04F69
:1017B00085B081468A4693461C46DDE90F78129D26
:1017C00000200390FEF72EFD03902348007830B1EF
:1017D0000398FEF72BFD3C2005B0BDE8F08F1F48B5
:1017E00050F8240088BB01201C4941F824000398CC
:1017F000FEF71CFD2A464146384600F0D1FC2B4638
:101800005A465146484600F0AFF804901198CDE989
:10181000008002953A4620460E9B049900F0B0FBEA
:10182000064636B90E48007801280CD100F058FB66
:1018300009E0FEF7F7FC03900020084941F8240076
:101840000398FEF7F3FC3046C6E7FFE70398FEF780
:10185000EDFC2820C0E7000051000020600C0020B3
:101860005E000020704770472DE9F04106460F46A4
:1018700014464FF000081548007818B11220207067
:10188000BDE8F081FEF7CEFC8046FF2E03D1104864
:10189000006890F832600F4850F826502DB9404645
:1018A000FEF7C4FC43202070EAE7012D05D1404635
:1018B000FEF7BCFC43202070E2E7EF644046FEF7F1
:1018C000B5FC0020207000BFDAE7000051000020C6
:1018D00064000020600C0020704700002DE9F047F4
:1018E00007460D464FF0000A002028606860FEF7AA
:1018F00099FC8246FF2F03D11948006890F8327096
:10190000184850F827402CB95046FEF78FFC43206A
:10191000BDE8F087012C04D15046FEF787FC432038
:10192000F6E7207C00F0010020B95046FEF77EFC6F
:101930004520EDE70026D4F80C90D4F808805046F6
:10194000FEF774FC00E0761C58F8041B0029FAD05E
:10195000B0002860A9EB0600800068600020D7E78F
:1019600064000020600C002070B5044610464FF063
:1019700080750560051F28462C606FF00106051F65
:1019800028462E604FF01236051F28462E604FF075
:101990000336051F28462E604FF00236051F2846E5
:1019A0002E607610051F28462E60051F28462960E8
:1019B0004FF01136051F28462E604FF01036051FD8
:1019C00028462E604FF00936051F28462E604FF03E
:1019D0000836051F28462E604FF00736051F28469B
:1019E0002E604FF00636051F28462E604FF0053654
:1019F000051F28462E604FF00436051F28462E602E
:101A000070BD00002DE9F04105464FF00008FEF7DB
:101A100009FC8046FF2D05D12048006890F832501F
:101A2000012608E01D48006890F83200A84201D164
:101A3000012600E000261A4850F825402CB94046FF
:101A4000FEF7F4FB4820BDE8F081012C04D14046AC
:101A5000FEF7ECFB4320F6E794F834701148C05DC4
:101A600094F8351088430F49C8550846C05D30B911
:101A700094F836100C48007888430B49087094F8A5
:101A8000300040F0080084F830004046FEF7CEFBFE
:101A9000012E01D100F024FA0020D4E764000020D8
:101AA000600C002056000020550000207047000008
:101AB00070B5054600261748007800B170BD16487D
:101AC000007800B1FAE71DB3FEF7ACFB06461348F9
:101AD000006890F834401248005D1049096891F898
:101AE000351088430E4908550846005D40B90B483B
:101AF000006890F836100B48007888430949087050
:101B000006480068C5623046FEF790FB00F0E8F931
:101B100000BFD3E7510000205200002064000020E5
:101B2000560000205500002070B5002600F072F825
:101B3000FEF778FB064631480068401C2F490860D4
:101B40003046FEF773FB2E480078012853D12D480C
:101B5000007820B1012804D0022809D103E0012532
:101B60000BE0002509E0012501202649087004E06A
:101B7000012500202349087000BF00BF05B970BDD2
:101B80002148046833E0FEF74DFB0646E06A50B397
:101B9000E06A401EE062E06A28BB94F8300000F082
:101BA000370040B114F8300F00F0C8002070012059
:101BB0006070303C02E0002084F8310094F830007E
:101BC00000F0080078B93434A07810490978084347
:101BD0000E49087020780E49085C6178084314F8B3
:101BE00034190B4A505464693046FEF71FFB94F8D1
:101BF00032003F28C7D100BFC1E700007C000020B1
:101C00005E000020740000207000002055000020BD
:101C100056000020704700002DE9F0415021114886
:101C200000F02CF900250DE0681C86B20D4800EB91
:101C3000051400EB06170020207067600AA0E06022
:101C4000681C85B2042DEFD3064800EB0514002074
:101C50002070606004A0E060024804490860BDE8AC
:101C6000F0810000100800203F000000400000202C
:101C700070B5C821114800F001F900230FE0581C8D
:101C800085B203EB83000D4901EB800405EB850071
:101C900001EB8006002020706660581C83B2092B7F
:101CA000EDD303EB8300054901EB80040020207095
:101CB000606008460249086070BD000048070020C7
:101CC0003C00002000200A4908600A4908700A49BF
:101CD00008700A4908700A4908700A4908600A49E8
:101CE00008600A4908600A4908600A490870704794
:101CF0007C00002051000020520000205F000020E6
:101D00005E00002038000020600000204C00002011
:101D1000480000205000002000210A4A11700020D5
:101D200004E00021084A1154411CC8B20828F8D325
:101D30000021064A1170064A1170064A1160064ACF
:101D4000116070475500002056000020530000200D
:101D5000540000206C0000206400002070B54FF497
:101D60007C71194800F08AF84FF48071174800F030
:101D700085F8002413E0601CC5B2C4EBC40000EB7E
:101D80004000114901EB8003C5EBC50000EB4000AA
:101D900001EB80065E610EA0D864601CC4B20B2CFF
:101DA000E9D3C4EBC40000EB4000074901EB80031A
:101DB0000020586106A0D864002006490860024847
:101DC0000549086070BD0000600D0020600C002017
:101DD0003F000000700000206800002000B587B0C0
:101DE0000320002180220A4BCDE90132CDE9031006
:101DF0004FF6FF703F23074A00900748FFF7D6FCD5
:101E000006AA06A13F20FFF72FFD07B000BD000086
:101E1000600A00205C0C0020B520000875432F4F9D
:101E2000532D49492049646C6500000000B587B016
:101E30000320002180220A4BCDE90132CDE90310B5
:101E40004FF6FE703E23074A00900748FFF7AEFCAE
:101E500006AA06A13E20FFF707FD07B000BD00005F
:101E6000600800205C0A0020DD20000875432F4F29
:101E7000532D4949205374617400000004E000228E
:101E800000F8012B4A1E91B20029F8D170470000DA
:101E90002DE9F04178211048FFF7F0FF00240DE014
:101EA000601C86B204EB44000B4901EBC00506EB55
:101EB000460001EBC0072F60601C84B2042CEFD3F6
:101EC00004EB4400044901EBC005002028600846EB
:101ED00002490860BDE8F081501100207800002020
:101EE00010B50024FEF79EF9044613480078F8B9AF
:101EF00012480078E0B900F02DF81148114909782E
:101F000050F82100104908600E4800780F49097800
:101F100088420DD00C480068806B401C0A49096853
:101F200088630B480068401C09490860FEF792F975
:101F30002046FEF77BF910BD510000205200002022
:101F4000600C0020540000206C0000205300002092
:101F5000380000200649074A1278885C0649095C67
:101F6000034A515C01EBC001044A11707047000044
:101F7000AA2C000855000020560000205400002024
:101F80002DE9F84F05460F4690469946DDE90AAB24
:101F900000200090FEF746F900903F480468002CAE
:101FA00074D0183454F8040C3B4908600098FEF7CC
:101FB0003DF944F8187CA5760020207660766061B3
:101FC00044F814BC44F80CAC44F8108C0C9824F879
:101FD000080C24F8069C0020E077E810207705F034
:101FE0000700E076217F01208840A077E17E012074
:101FF0008840607700206060E060A0602062A0629E
:102000006062E062206325A06063183C002606E061
:10201000002104F1500040F82610701CC6B2002EBA
:10202000F6D02046FFF770FB2046FFF71BFCFEF7BB
:10203000F9F800901A4840F825401A480068606195
:102040000020A0611748006810B11648006884613C
:10205000144804603434A0781349097808431249BD
:10206000087020781149085C6178084314F8341925
:102070000E4A50540E480078401C0D4908700098D4
:10208000FEF7D4F80020BDE8F88FFFE70098FEF7D0
:10209000CDF84220F7E70000680000203F00000074
:1020A000600C002070000020550000205600002029
:1020B0005F000020002400BF00BFFEF7B3F8044615
:1020C00005480068401C044908602046FEF7AEF849
:1020D000FFF7C9FBF1E7000060000020002400BF0B
:1020E00002E02820FFF7E4FC194800780028F8D027
:1020F000184800686421B0FBF1F0164908600846F2
:10210000006828B9002014490870FF20FFF77AFC06
:1021100000BFFEF787F804461048006810490860C1
:1021200000200E4908602046FEF780F80C48006841
:1021300008490968B0FBF1F0C0F164000649087075
:10214000FFF7CAFB00F00EF81420FFF7B1FCE0E740
:1021500050000020480000204400002060000020C3
:102160004C0000207CB5002514E069462846FFF7A6
:10217000B5FB064666B9094850F8254044B1012C24
:1021800006D0D4E9020100EB810060640198A064EC
:10219000681CC5B23F2DE8D97CBD0000600C002052
:1021A00002F0010343B102F002032BB102E0491E29
:1021B000002308C00029FAD17047000029B1064A5F
:1021C00092690243044B9A6104E0034A9269824394
:1021D000014B9A61704700000010024030B50021A9
:1021E0000022002400232D4D6D6805F00C0121B163
:1021F000042905D0082923D105E0294D056022E0F6
:10220000274D05601FE0254D6D6805F47012234DC4
:102210006D6805F48034022505EB92421CB9214D0E
:10222000554305600BE01D4D6D6805F400351DB18B
:102230001C4D5543056002E0194D5543056002E011
:10224000174D056000BF00BF144D6D6805F0F0012B
:102250000909154D6B5C0568DD4045600F4D6D68E3
:1022600005F4E061090A104D6B5C4568DD4085604E
:102270000A4D6D6805F46051C90A0B4D6B5C4568E9
:10228000DD40C560054D6D6805F44041890B074D83
:102290006B5CC568B5FBF3F5056130BD001002400D
:1022A00000127A0000093D002200002032000020C8
:1022B000704710B500F002F810BD00000CB500200A
:1022C000019000903348006840F480303149086044
:1022D00000BF3048006800F4003000900198401CB6
:1022E0000190009818B90198B0F5A06FF1D1294874
:1022F000006800F4003010B10120009001E00020DF
:1023000000900098012843D12348006840F0100055
:10231000214908600846006820F00300086008466C
:10232000006840F0020008601A4840681949486097
:102330000846406848600846406840F4806048604D
:102340000846406820F47C1048600846406840F425
:10235000E81048600846006840F08070086000BFE0
:102360000C48006800F000700028F9D00948406867
:1023700020F00300074948600846406840F002002A
:10238000486000BF0348406800F00C000828F9D1FD
:102390000CBD00000010024000200240042808D1BB
:1023A0004FF0E021096941F004014FF0E022116192
:1023B00007E04FF0E021096921F004014FF0E0222D
:1023C0001161704710B505480078012805D1FFF765
:1023D000A7F8FFF7A9FBFFF7B5F810BD5E000020D6
:1023E00010B51348006840F0010011490860084624
:1023F0004068104908400E494860084600680E4988
:1024000008400B4908600846006820F480200860F6
:102410000846406820F4FE0048604FF41F008860C2
:10242000FFF747FF4FF000600449086010BD00004F
:10243000001002400000FFF8FFFFF6FE08ED00E08C
:1024400010B5FFF76DF840F225511E4800F04CF82A
:1024500010B31C4800F004F9C4B21B48008800F413
:102460000040C8B91848008800F4804060B10A2CC8
:1024700003D000201449088020E01348008840F46D
:1024800000401149088019E00D2C06D10E48008843
:1024900040F480400C49088010E00B480088C0F3ED
:1024A0000D000A490C5408480088401C0649088061
:1024B00008460088C72801DD00200880FFF742F8A1
:1024C00010BD0000003801402000002080060020E0
:1024D00021B1828942F40052828104E082894DF662
:1024E000FF731A408281704770B5024600240023B2
:1024F0000025002040F66A16B14200D100BFC1F3AA
:10250000421501F01F03012606FA03F3012D02D143
:102510009689334006E0022D02D1168A334001E04D
:10252000968A33400C12012606FA04F416883440C9
:1025300013B10CB1012000E0002070BDF0B50346DE
:10254000002400260025002040F66A17B94200D179
:1025500000BF1846C1F3421401F01F06012707FA15
:1025600006F5012C01D10C3004E0022C01D1103011
:1025700000E014301AB107682F43076002E00768D3
:10258000AF430760F0BD00002DE9F04786B0054677
:102590000E460024A24600BFA1460027B08900B124
:1025A00000BF2F462C8A4CF6FF700440F08804438D
:1025B0002C82AC894EF6F3100440B0883189084370
:1025C000718908430443AC81AC8A4FF6FF40044054
:1025D000B0890443AC8201A8FFF700FE1F48874280
:1025E00002D1DDF810A001E0DDF80CA0A88900F40C
:1025F000004040B10AEBCA0000EB0A103168490004
:10260000B0FBF1F807E00AEBCA0000EB0A103168F2
:102610008900B0FBF1F86420B8FBF0F00401200958
:10262000642101FB1089A88900F4004040B13220E8
:1026300000EBC900B0FBF1F000F00700044308E034
:10264000322000EB09106421B0FBF1F000F00F0024
:1026500004432C8106B0BDE8F0870000003801403B
:1026600001468888C0F30800704700BFFEE74900B4
:1026700050EAC12018BF04204A0D18BF40F00100E5
:1026800040F2FF72B2EB515F08BF40F00200012838
:1026900008BF0520704730380A2801D20120704752
:1026A0000020704700BF704710B56FF00400FFF7BF
:1026B00075FE104800681049B0FBF1F00F49087032
:1026C0000C4800680C49B0FBF1F441F288304443F7
:1026D00005200B4908804FF0E020006940F002001F
:1026E0004FF0E021086108464461006940F00100B4
:1026F000086110BD0400002000127A0018000020BC
:102700001A00002070B504460F480078A0B10F48A9
:10271000007888B90E480088844206DB0C4800889F
:1027200094FBF0F5284600F01DF80948008894FB5A
:10273000F0F100FB114084B24FF47A7104FB01F018
:1027400000F016F870BD00005E000020510000206F
:102750001A00002010B5FEF73DFF10BD10B5FEF7C2
:1027600059FF10BD10B504462046FFF7A1F910BD72
:102770002DE9F047074600264FF0E020D0F81490EE
:102780001148007807FB00F800BFFFF7E3FF4FF0A8
:10279000E020856911E04FF0E0208469AC420CD064
:1027A000AC4202D2281B064403E0A9EB04002844F3
:1027B00006442546464500D300E0ECE700BFFFF79E
:1027C000CDFFBDE8F08700001800002000241AE0CB
:1027D0000D490E48006800F043F90C490860FDF708
:1027E00021FD04460948006800F00EF905462A4616
:1027F0000B4607A0FDF772FD2046FDF717FD4FF4CD
:10280000FA70FFF77FFFE3E70AD7233C00000020C0
:10281000666C6F61745F6E756DB5C4D6B5CEAA3A3D
:1028200020252E34660D0A0000BF054A128802F0EA
:102830004002002AF9D0C2B2014B1B1D1A8070471A
:10284000003801400CE00020064908605020FFF7E6
:1028500059FF01200449C1F8A0016420FFF752FF8D
:10286000F1E70000A0012142000021420EE000201B
:10287000074908604FF49670FFF744FF01200549AF
:10288000C1F888014FF49670FFF73CFFEFE70000B6
:10289000888122420080224210B5FFF705FF4FF4E5
:1028A000A060FEF71BFE4FF4E13000F041F8FEF7A8
:1028B000B1FDFEF71DFE0A23044A00210448FEF77D
:1028C00025FFFEF7D7FE002010BD00007C0200208F
:1028D000D528000870B50446002500BFFEF7EEFEBF
:1028E000FDF7A0FC054607230B4A00210B48FEF725
:1028F0000DFF06230A4A00210A48FEF707FF0523B9
:10290000094A00210948FEF701FF0A20FFF77AF87B
:102910002846FDF78BFC70BD7C030020452800088D
:102920007C0400206D2800087C060020CD270008CC
:1029300010B586B00446012144F20400FFF73EFCC6
:102940004FF40070ADF8140003208DF81600182025
:102950008DF8170005A91C48FEF7CDFC4FF48060E8
:10296000ADF8140004208DF8170005A91648FEF7ED
:10297000C2FC25208DF8000003208DF801008DF8A1
:10298000020001208DF803006846FEF76FFD0194F8
:102990000020ADF80800ADF80A00ADF80C00ADF865
:1029A00010000C20ADF80E0001A90848FFF7ECFD5F
:1029B000012240F225510548FFF7C0FD01210348DF
:1029C000FFF786FD06B010BD000801400038014049
:1029D00010B500290AD00878002807D005487844A7
:1029E000FEF77EF8002801D0002010BD0248784490
:1029F00010BD0000820400007A0400000808A0F561
:102A000000114FEA3101704743004FEAD30C4FEAFF
:102A10003C0C43401FBF40070CF1605113F0FE4FC8
:102A200070471CF0006F03D100200CF0004170478C
:102A30000CF0004343EA507010B540EACC0000F0BF
:102A400071F800BF000000924FEA0001FFF7D6BF07
:102A50004FF000414FF00000A1F500217047000049
:102A600090EA010F48BF81F0004100F1AE80421AA8
:102A70003CBF801A89184FEAD0524FF07F4C1CEAB5
:102A8000410FA2EBD15318BF9CEA026F00F03B80CC
:102A90004FF0004C4CEA00204CEA012121FA03FCE3
:102AA00010EB0C0C1ED202F1FF325FEA1C2040EB4F
:102AB000C25038BF70471CF07F0F4FEA400C18BF60
:102AC000BCF17F4F38BF7047C3F12003994008BF66
:102AD00020F00100BCF17F4F38BF7047A0F1C0402B
:102AE00000F066B84FEA3C00000A40EBC25028BF35
:102AF0001CF0FF0F4FEA400CE6D018BFBCF17F4F2F
:102B000038BF7047EAE79CEA026F05D010EA5C0F15
:102B100008BF00F00040704710B500F003F800BF98
:102B200064FBBE3E0EF1020E2EF0030E5EF8044B67
:102B3000244204D44FEA4102B2F17F4F11D84FEA48
:102B40004003B3F17F4F0CD80ED14FEAD07CB2F1E5
:102B50007F4F0CEB4C0C0CF1020C08BF4CEBD17C02
:102B600004E04FF0080C01E04FEAD17C0CEB4C0381
:102B700024FA03F404F00704B4F1040C06D20EEBBB
:102B8000840CBDE810404CF0010C6047DFE80CF00D
:102B9000070802024FF00040A0F5800010BD084673
:102BA000420018BFD2F1807288BF00F0004010BD13
:102BB000FF2141EAD050C0057047000090EA010FA4
:102BC00048BF81F000413FF552AF421A04D882F06D
:102BD0000042A0EB020011444FEAD0524FF07F4C6C
:102BE0001CEA410FA2EBD15318BF9CEA026F4AD0F6
:102BF0004FF0004C4CEA00204CEA012121FA03FC82
:102C0000B0EB0C0C0FD412F0FE0F36D05FEA4C0084
:102C10001DD5001240EBC25038BF70471CF03F0F6B
:102C200018BF70470BE0A2F101025FEA1C2040EBE5
:102C3000C25038BF70471CF07F0F18BF7047C3F1F8
:102C40002003994014BF401E20F001007047800807
:102C50004FEA122308BF7047B0FA80FCA2EB0C02C7
:102C6000CCF1280C60FA0CF093EA122F04BF00EBB1
:102C7000C25070474FEAC3707047130A5FEADC1016
:102C800008BF7047F6E79CEA026F04D010EA5C0FB9
:102C900008BF0020704710B5FFF744FF40DFF63E45
:102CA00081F000407047FDF789BC00000100020080
:102CB0000100030001000200010004000100020005
:102CC00001000300010002000100050001000200F4
:102CD00001000300010002000100040001000200E5
:102CE00001000300010002000100060001000200D3
:102CF00001000300010002000100040001000200C5
:102D000001000300010002000100050001000200B3
:102D100001000300010002000100040001000200A4
:102D20000100030001000200010007000100020091
:102D30000100030001000200010004000100020084
:102D40000100030001000200010005000100020073
:102D50000100030001000200010004000100020064
:102D60000100030001000200010006000100020052
:102D70000100030001000200010004000100020044
:102D80000100030001000200010005000100020033
:102D90000100030001000200010004000100020024
:102DA00001000300010002000100000002400000D9
:102DB000000000A00000000005400000000000C866
:102DC000000000000C4000000000409C00000000DB
:102DD000194000000020BCBE00000000344000008C
:102DE000BFC91B8E00000004B5400000504BCFD07F
:102DF0006607E2CF010000006C4100003E8251AA4C
:102E0000DFEEA73401000000D9420000DCB5A0E2EB
:102E10003A301F97FFFFFFFFB4450000FD25A0C813
:102E2000E9A3C14FFFFFFFFFFF3F0000000000804C
:102E300000000000FF3F00000000008000000000D4
:102E40007C2E000800000020800000006C010008BB
:102E5000FC2E000880000020A81700008801000850
:102E60001C00000043000000F8FFFFFF0C00000002
:102E70000E0000000F0000002E0000000AD7233CC7
:102E800000A24A0400000000000000000102030448
:102E90000607080900000000000000000000000014
:102EA00000000102030401020304060708090204EA
:102EB0000608000000000000000000000000000004
:102EC0000000000000000000000000000000000002
:102ED00000000000000000000000000000000000F2
:102EE00000000000000000000000000000000000E2
:0C2EF000000000000000000000000000D6
:0400000508000131BD
:00000001FF
