:020000040800F2
:10000000C834002021640008950500089705000801
:100010009B0500089F050008A305000800000000DC
:10002000000000000000000000000000A70500081C
:10003000A90500080000000033090108A1610008BB
:100040003B6400083B6400083B6400083B64000814
:100050003B6400083B6400083B6400083B64000804
:100060003B6400083B6400083B6400083B640008F4
:100070003B6400083B6400083B6400083B640008E4
:100080003B6400083B6400083B6400083B640008D4
:100090003B6400083B6400083B6400083B640008C4
:1000A0003B6400083B6400083B6400083B640008B4
:1000B0003B6400083B6400083B6400083B640008A4
:1000C0003B6400083B6400083B6400083B64000894
:1000D0003B6400088F6300083B6400083B64000831
:1000E0003B6400083B6400083B6400083B64000874
:1000F0003B6400083B6400083B6400083B64000864
:100100003B6400083B6400083B6400083B64000853
:100110003B6400083B6400083B6400083B64000843
:100120003B6400083B6400083B6400083B64000833
:1001300000F002F800F05FF80AA090E8000C82449A
:100140008344AAF10107DA4501D100F054F8AFF277
:10015000090EBAE80F0013F0010F18BFFB1A43F0A5
:1001600001031847C0230100E02301000A444FF0B7
:10017000000C10F8013B13F0070408BF10F8014B06
:100180001D1108BF10F8015B641E05D010F8016B4B
:10019000641E01F8016BF9D113F0080F1EBF10F8AF
:1001A000014BAD1C0C1B09D16D1E58BF01F801CBD2
:1001B000FAD505E014F8016B01F8016B6D1EF9D555
:1001C0009142D6D37047000000230024002500266A
:1001D000103A28BF78C1FBD8520728BF30C148BFAA
:1001E0000B607047782910F09F82002070471FB580
:1001F0001FBD10B510BD10F04FFB1146FFF7F7FF04
:1002000000F0E8F810F06DFB03B4FFF7F2FF03BC59
:1002100006F060F80EB52EE0BDA010F045FA02A879
:1002200000231A4619460090BD480CF087FB0E20AB
:1002300094FBF0F100FB1140BA4931F8200085B27F
:10024000C7233B2279210620009505F00EFC601C97
:10025000C4B2B548006808B9012000E00020B249E6
:10026000086002A8082100230122CDE900101946E8
:1002700018460FF032FACFE70EB51DE0002005F06A
:1002800028FF0446032C0DD102AA0021A4480CF03B
:1002900092FD10200090A24803236521026A0820E5
:1002A00005F005FE02A808210A230022CDE900106E
:1002B000114610460FF011FAE0E730B58BB0044656
:1002C000002500BF06F020FF0AA80CF094FE0AAA41
:1002D0000121084608F019FF0AAB002293A19048BB
:1002E0000CF0FDF900BF00BF00BF07F045F8054660
:1002F00000BF00BF8F480078401C8E49087000BFC7
:1003000000BF284607F03CF800BF00BF00BF0AA8A6
:10031000032100220592CDE9062108901046802194
:100320000C22854BCDE90132CDE9031004200023D6
:10033000AFF2BB0281A1009083480DF033FA0AA806
:10034000032100220592CDE9062108901046802164
:100350000C227E4BCDE90132CDE9031005200023AC
:10036000AFF24F127AA100907C480DF01BFA00BF4B
:1003700000BF00BF07F000F8054600BF00BF6D4892
:100380000078401E6B49087008460078A0B9744890
:100390000088002809DD00BF00BF284606F0F0FFF6
:1003A00000BF00BF09F099FA0DE000BF00BF28466A
:1003B00006F0E6FF00BF06E000BF00BF284606F0DB
:1003C000DFFF00BF00BF00BF0AA900200DF03EFB09
:1003D0000BB030BD10B58AB0002405F0EDFE4FF42F
:1003E000A06006F03DF84FF4E13005F081FF05F024
:1003F0006DFF00F0CBF901F02AFE05F041FE4FF44D
:1004000078405849088058A010210B46C822CDE9F1
:1004100000100A211E2005F0F3FD57A010210B4605
:10042000C822CDE900101E21084605F0E9FDC823C9
:100430003C226421052005F027FC78233C22194644
:10044000052005F0C9FB05F043FF09A808F02EFCC4
:1004500000BF00BF00BF06F08FFF044600BF00BF13
:1004600034480078401C3349087000BF00BF204664
:1004700006F086FF00BF00BF00BF09A803210022CD
:100480000592CDE906210890104680210C223C4BB4
:10049000CDE90132CDE9031003200023AFF2E512CC
:1004A00038A100903A480DF07DF900BF00BF00BFB1
:1004B00006F062FF044600BF00BF1E480078401EE1
:1004C0001C49087008460078A0B925480088002813
:1004D00009DD00BF00BF204606F052FF00BF00BF8D
:1004E00009F0FBF90DE000BF00BF204606F048FF11
:1004F00000BF06E000BF00BF204606F041FF00BF7E
:1005000000BF00BF09A808F0A0FE00200AB010BD7F
:10051000D5FDD4DAD6B4D0D0C8CECEF1320D0A0093
:100520009C090020000000208881224273656D3103
:1005300000000000EC000020D80400205461736B20
:1005400031207461736B0000140400209C070020AC
:100550005461736B32207461736B0000D806002005
:10056000B00000204C00002053594E2D6D6973736C
:10057000696F6E20000000004B45595F5550200008
:10058000140200207374617274207461736B000034
:1005900050010020704700BFFEE700BFFEE700BF2C
:1005A000FEE700BFFEE77047704700000CB5002073
:1005B000019000906C48006840F480306A490860FF
:1005C00000BF6948006800F4003000900198401CAA
:1005D0000190009818B90198B0F5A06FF1D1624868
:1005E000006800F4003010B10120009001E000200C
:1005F00000900098012843D15C48006840F010004A
:100600005A4908600846006820F003000860084660
:10061000006840F002000860534840685249486052
:100620000846406848600846406840F4806048607A
:100630000846406820F47C1048600846406840F452
:10064000E81048600846006840F08070086000BF0D
:100650004548006800F000700028F9D04248406822
:1006600020F00300404948600846406840F002001E
:10067000486000BF3C48406800F00C000828F9D1F1
:100680000CBD10B5FFF792FF10BD10B536480068DD
:1006900040F0010034490860084640683449084089
:1006A0003149486008460068324908402E490860D0
:1006B0000846006820F4802008600846406820F45E
:1006C000FE0048604FF41F008860FFF7DAFF4FF02C
:1006D00000602949086010BD10B5002100200022EB
:1006E000214B5B6803F00C0121B1042906D00829D5
:1006F00028D107E0214B224C236027E01F4B204CE0
:10070000236023E0184B5B6803F47010164B5B68A2
:1007100003F48032022303EB904022B9194B434388
:10072000174C23600DE0104B5B6803F4003323B1DA
:10073000144B4343124C236003E0104B4343104CD3
:10074000236003E00D4B0E4C236000BF00BF064B3F
:100750005B68C3F303130C4CE15C094B1B68CB4093
:10076000074C236010BD0000001002400020024032
:100770000000FFF8FFFFF6FE08ED00E000127A002F
:100780003800002000093D003C00002008B5012190
:10079000242006F0F3FB4FF48070ADF80000102029
:1007A0008DF8030003208DF802006946094805F022
:1007B00025FF4FF48071074805F0CDFF0420ADF808
:1007C00000006946044805F019FF0421024805F0BD
:1007D000C2FF08BD000801400014014010B50446E6
:1007E0004FF48071FE4805F0B8FF4FF40071FC48EB
:1007F00005F0B3FF2146FB4805F0B6FF8021F8481D
:1008000005F0ABFF8021F64805F0A5FF4FF400711D
:10081000F34805F0A0FF10BD10B504464FF48071F9
:10082000EF4805F098FF4FF40071ED4805F095FF93
:100830002146EC4805F098FF8021E94805F08DFF3E
:100840008021E74805F087FF4FF40071E44805F088
:1008500082FF10BD10B54FF08830E2490860091DD5
:1008600008600020DF490C3108608915DC4805F07C
:1008700072FF4FF40071DA4805F06FFF4021D8484D
:1008800005F06BFFD848808848F68911884202D16C
:10089000022005F0BFFCD34805F04CFF0446402180
:1008A000CF4805F058FF4FF40071CD4805F053FFD5
:1008B0004FF03330CB490860091D08604FF6FF70D8
:1008C000C8490C310860204610BD70B504460D467D
:1008D0002046FFF783FF4FF48071C14805F03BFFCE
:1008E0004FF40071BE4805F038FF2946BD4805F0B9
:1008F0003BFF8021BA4805F030FF8021B84805F061
:100900002AFF4FF40071B64805F025FF70BD10B501
:1009100004462046FFF762FFFFF79CFF10BD10B5AD
:10092000B1490889FFF75AFF10BD10B504464FF4CE
:100930008071AB4805F00FFF4FF40071A84805F037
:100940000CFF2146A74805F00FFF8021A44805F0C1
:1009500004FF8021A24805F0FEFE4FF40071A0487C
:1009600005F0F9FE10BD30B5014601F01F04C1F3DA
:100970004513CA0AE50205EB43151544A8B230BD7C
:1009800070B504460D469848808849F24131884246
:1009900005D09548808845F21031884275D192493A
:1009A0004889FFF71BFF4FF480718D4805F0D3FE97
:1009B0004FF400718A4805F0D0FE2112894805F0F5
:1009C000D3FE8021864805F0C8FE8021844805F0CA
:1009D000C2FE4FF40071824805F0BDFE4FF48071F5
:1009E0007F4805F0B8FE4FF400717D4805F0B5FE74
:1009F000E1B27C4805F0B8FE8021794805F0ADFEF3
:100A00008021774805F0A7FE4FF40071744805F087
:100A1000A2FE75498889FFF7E1FE4FF480717048A6
:100A200005F099FE4FF400716D4805F096FE29120D
:100A30006C4805F099FE8021694805F08EFE802102
:100A4000674805F088FE4FF40071654805F083FEA5
:100A50004FF48071624805F07EFE4FF400716048EB
:100A600005F07BFEE9B25F4805F07EFE80215C4820
:100A700005F073FE80215A4805F06DFE4FF40071B9
:100A8000574805F068FE28E1FFE75748808846F69A
:100A9000040188427ED154488079012804D152480B
:100AA0000088401E001B84B24F494889FFF796FE1C
:100AB0004FF480714A4805F04EFE4FF400714848EB
:100AC00005F04BFE2112474805F04EFE80214448B8
:100AD00005F043FE8021424805F03DFE4FF40071D1
:100AE0003F4805F038FE4FF480713D4805F033FE75
:100AF0004FF400713A4805F030FEE1B2394805F094
:100B000033FE8021364805F028FE8021344805F068
:100B100022FE4FF40071324805F01DFE32498889EB
:100B2000FFF75CFE4FF480712D4805F014FE4FF482
:100B300000712B4805F011FE29122A4805F014FE19
:100B40008021274805F009FE8021254805F003FE95
:100B50004FF40071224805F0FEFD4FF480712048EB
:100B600005F0F9FD4FF400711D4805F0F6FDE9B2FE
:100B70001C4805F0F9FD8021194805F0EEFD8021A3
:100B8000174805F0E8FD4FF40071154805F0E3FD46
:100B9000A3E0FFE71448808845F2105188427CD1D9
:100BA00011494889FFF71AFE4FF480710C4805F08F
:100BB000D2FD4FF400710A4805F0CFFD211209481B
:100BC00005F0D2FD8021064805F0C7FD80210448CC
:100BD00005F0C1FD4FF40071014805F0BCFD05E0D2
:100BE00000100140000C0140C4090020F849498967
:100BF000491C88B2FFF7F2FD4FF48071F54805F00B
:100C0000AAFD4FF40071F34805F0A7FDE1B2F248E8
:100C100005F0AAFD8021EF4805F09FFD8021ED48F9
:100C200005F099FD4FF40071EA4805F094FDE8499C
:100C30008889FFF7D3FD4FF48071E64805F08BFDFE
:100C40004FF40071E34805F088FD2912E24805F0F1
:100C50008BFD8021DF4805F080FD8021DD4805F017
:100C60007AFD4FF40071DB4805F075FDD84989899C
:100C7000491C88B2FFF7B2FD4FF48071D54805F0EA
:100C80006AFD4FF40071D34805F067FDE9B2D24820
:100C900005F06AFD8021CF4800E00BE005F05DFD26
:100CA0008021CC4805F057FD4FF40071C94805F08C
:100CB00052FD12E0C6488079012804D1C44800885A
:100CC000401E001B84B2C24948892146FFF7FDFD42
:100CD000BF4988892946FFF7F8FD70BD2DE9F0412D
:100CE00005460E46BA480088A84203DDB848408849
:100CF000B04202DC0020BDE8F08131462846FFF713
:100D00003FFEB348808849F2413188420BD0B04859
:100D1000808846F60401884205D0AD48808845F2B7
:100D20001031884203D12E20FFF758FD0DE0A8486E
:100D3000808845F21051884204D14FF43850FFF7B3
:100D40004DFD02E02220FFF749FD4FF08830A24917
:100D50000860091D08604FF6FF709F490C3108605C
:100D600089159C4805F0F7FC4FF40071994805F08F
:100D7000F4FC4021974805F0F0FC012005F04AFA08
:100D80004021944805F0E7FC4021924805F0E5FC3D
:100D9000012005F03FFA904805F0CCFC04464021C4
:100DA0008C4805F0D8FC8A48808849F24131884255
:100DB0000BD08748808845F21031884205D084489E
:100DC000808845F21051884211D14021814805F0B8
:100DD000C4FC814805F0AEFC804640217D4805F00A
:100DE000BAFCE7B24FF6FF7000EA072711E0784837
:100DF000808846F6040188420BD14021754805F0F1
:100E0000ACFC4021734805F0A6FC734805F092FC49
:100E100004464FF400716F4805F09DFC4FF03330ED
:100E20006D490860091D08604FF6FF706A490C3172
:100E300008606748808849F22531884216D06448A6
:100E4000808844F23551884210D061488088091F5B
:100E500088420BD05E48808848F68911884205D0C8
:100E60005B4880884BF20551884201D1204642E719
:100E70005748808849F2413188420BD054488088D5
:100E800045F21031884205D05148808845F2105112
:100E9000884207D1E012C002B91240EA411040EA8C
:100EA000E82028E72046FFF75EFD24E710B5484814
:100EB000808849F2413188420BD04548808846F607
:100EC0000401884205D04248808845F210318842AA
:100ED00003D12920FFF782FC0FE03D48808845F2CE
:100EE0001051884204D14FF42450FFF777FC04E0FE
:100EF00040F273110720FFF7E8FC10BD10B534482D
:100F0000808849F2413188420BD03148808846F6CA
:100F10000401884205D02E48808845F2103188426D
:100F200003D12820FFF75AFC0EE02948808845F2BB
:100F30001051884204D14FF42050FFF74FFC03E0DA
:100F400000210720FFF7C1FC10BD2DE9F041054647
:100F5000002400271E48807901281ED11C48808863
:100F600046F60401884218D0082D15D2DFE805F0B6
:100F70000406080A0C0E101206250DE007250BE0EA
:100F8000042509E0052507E0012505E0002503E02B
:100F9000032501E0022500BF00BF0D48808849F20B
:100FA0004131884211D00A48808846F604018842BF
:100FB0000BD00748808845F21031884205D004489C
:100FC000808845F2105188427ED1082D23D205E059
:100FD000C409002000100140000C0140DFE805F0CA
:100FE0000406090C0F12151800BF14E044F0800429
:100FF00011E044F040040EE044F0C0040BE044F083
:10100000200408E044F0600405E044F0A00402E09D
:1010100044F0E00400BF00BFFE48808845F2105154
:10102000884202D14FF4585700E03627F9488088AB
:1010300045F21031884207D0F648808845F21051B9
:10104000884201D044F00804F248808846F6040142
:10105000884201D144F0020421463846FFF735FCAE
:1010600004F0200068B1EB480088EA4949888842CA
:1010700014DAE84806884088E64908800846468031
:101080000CE0E4480088E3494988884206DDE148ED
:1010900006884088DF49088008464680DD48808809
:1010A00045F2105188427CD1DA494889FFF796FB16
:1010B0004FF48071D84805F04EFB4FF40071D648CC
:1010C00005F04BFB002100E0FBE1D44805F04CFBB0
:1010D0008021D14805F041FB8021CF4805F03BFB42
:1010E0004FF40071CC4805F036FBCA494989491CC8
:1010F00088B2FFF773FB4FF48071C74805F02BFBF4
:101100004FF40071C44805F028FB0021C34805F0E6
:101110002BFB8021C04805F020FB8021BE4805F054
:101120001AFB4FF40071BC4805F015FBB949498919
:10113000891C88B2FFF752FB4FF48071B64805F066
:101140000AFB4FF40071B44805F007FBB148008872
:10115000401EC0F30F21B14805F006FB8021AE48C8
:1011600005F0FBFA8021AC4805F0F5FA4FF4007168
:10117000A94805F0F0FAA7494989C91C88B2FFF7C8
:101180002DFB4FF48071A44805F0E5FA4FF400718F
:10119000A14805F0E2FA9F480078401EC1B29F487E
:1011A00000E098E005F0E0FA80219B4805F0D5FAD0
:1011B0008021994805F0CFFA4FF40071964805F068
:1011C000CAFA94498889FFF709FB4FF48071924865
:1011D00005F0C1FA4FF400718F4805F0BEFA002106
:1011E0008E4805F0C1FA80218B4805F0B6FA8021BF
:1011F000894805F0B0FA4FF40071874805F0ABFA62
:1012000084498989491C88B2FFF7E8FA4FF4807154
:10121000814805F0A0FA4FF400717F4805F09DFA6F
:1012200000217E4805F0A0FA80217B4805F095FA60
:101230008021794805F08FFA4FF40071764805F067
:101240008AFA74498989891C88B2FFF7C7FA4FF472
:101250008071714805F07FFA4FF400716E4805F017
:101260007CFA6C484088401EC0F30F216B4805F0A3
:101270007BFA8021684805F070FA8021664805F005
:101280006AFA4FF40071644805F065FA614989898A
:10129000C91C88B2FFF7A2FA4FF480715E4805F0CE
:1012A0005AFA4FF400715C4805F057FA59488078B3
:1012B000401EC1B2594805F057FA8021564805F042
:1012C0004CFA8021544805F046FA4FF40071524818
:1012D00005F041FA27E14F494889FFF77FFA4FF4BB
:1012E00080714D4805F037FA4FF400714A4805F017
:1012F00034FA0021494805F037FA8021464805F0C4
:101300002CFA8021444805F026FA4FF40071424837
:1013100005F021FA4FF480713F4805F01CFA4FF4B4
:1013200000713D4805F019FA00213C4805F01CFA0F
:101330008021394805F011FA8021374805F00BFA71
:101340004FF40071344805F006FA4FF480713248CA
:1013500005F001FA4FF400712F4805F0FEF92D4811
:101360000088401EC0F30F212C4805F0FDF98021B4
:10137000294805F0F2F98021274805F0ECF94FF4EF
:101380000071254805F0E7F94FF48071224805F017
:10139000E2F94FF40071204805F0DFF91D480078AC
:1013A000401EC1B21D4805F0DFF980211A4805F042
:1013B000D4F98021184805F0CEF94FF40071164891
:1013C00005F0C9F913498889FFF708FA4FF48071CD
:1013D000114805F0C0F94FF400710F4805F0BDF950
:1013E00000210E4805F0C0F980210B4805F0B5F941
:1013F0008021094805F0AFF94FF40071064805F067
:10140000AAF94FF48071044805F0A5F94FF4007172
:10141000014805E0C409002000100140000C014013
:1014200005F09BF90021FE4805F09EF98021FD485A
:1014300005F093F98021FB4805F08DF94FF4007118
:10144000F84805F088F94FF48071F64805F083F903
:101450004FF40071F34805F080F9F3484088401ECE
:10146000C0F30F21EE4805F07FF98021ED4805F02B
:1014700074F98021EB4805F06EF94FF40071E948EA
:1014800005F069F94FF48071E64805F064F94FF40E
:101490000071E44805F061F9E3488078401EC1B26C
:1014A000DF4805F061F98021DE4805F056F980211A
:1014B000DC4805F050F94FF40071DA4805F04BF9BB
:1014C00031E0082D1CD2DFE805F004070A0D0F12E9
:1014D000151844F0300413E044F0100410E044F018
:1014E00020040DE000BF0BE044F0380408E044F0B5
:1014F000280405E044F0180402E044F0080400BFAA
:1015000000BFC948808848F68911884204D1112754
:1015100046F24000044302E0032744F4805421468D
:101520003846FFF7D2F9BDE8F08170B504460D46A4
:1015300029462046FFF724FAFFF7F1F94FF48071AE
:10154000B84805F008F94FF40071B64805F005F900
:10155000B6480188B24805F007F98021B14805F086
:10156000FCF88021AF4805F0F6F84FF40071AD4863
:1015700005F0F1F870BD70B504460D461646AA4850
:10158000808849F24131884205D0A748808845F2D9
:101590001031884275D1A4494889FFF71FF94FF4EB
:1015A0008071A04805F0D7F84FF400719D4805F010
:1015B000D4F821129A4805F0D7F88021994805F00F
:1015C000CCF88021974805F0C6F84FF40071954893
:1015D00005F0C1F84FF48071924805F0BCF84FF463
:1015E0000071904805F0B9F8E1B28D4805F0BCF8FB
:1015F00080218C4805F0B1F880218A4805F0ABF8CD
:101600004FF40071874805F0A6F887498889FFF7ED
:10161000E5F84FF48071834805F09DF84FF40071B0
:10162000804805F09AF829127D4805F09DF8802140
:101630007C4805F092F880217A4805F08CF84FF448
:101640000071784805F087F84FF48071754805F00F
:1016500082F84FF40071734805F07FF8E9B27048E2
:1016600005F082F880216F4805F077F880216D48F9
:1016700005F071F84FF400716A4805F06CF82CE140
:10168000FFE76948808845F2105188427ED166495B
:101690004889FFF7A3F84FF48071624805F05BF8C2
:1016A0004FF400715F4805F058F821125C4805F0CE
:1016B0005BF880215B4805F050F88021594805F01F
:1016C0004AF84FF40071574805F045F856494989E2
:1016D000491C88B2FFF782F84FF48071514805F039
:1016E0003AF84FF400714F4805F037F8E1B24C4832
:1016F00005F03AF880214B4805F02FF88021494841
:1017000005F029F84FF40071464805F024F84649E1
:101710008889FFF763F84FF48071424805F01BF8A1
:101720004FF400713F4805F018F829123C4805F0C5
:101730001BF880213B4805F010F88021394805F05E
:101740000AF84FF40071374805F005F836498989E1
:10175000491C88B2FFF742F84FF48071314804F019
:10176000FAFF4FF400712F4804F0F7FFE9B22C485C
:1017700004F0FAFF80212B4804F0EFFF8021294874
:1017800004F0E9FF4FF40071264800E002E004F0A5
:10179000E2FFA2E02448808846F6040188427CD11A
:1017A00021488079012804D11F480088401E001B71
:1017B00084B21D494889FFF711F84FF48071194828
:1017C00004F0C9FF4FF40071164804F0C6FF21125F
:1017D000134804F0C9FF8021124804F0BEFF8021A5
:1017E000104804F0B8FF4FF400710E4804F0B3FF46
:1017F0004FF480710B4804F0AEFF4FF400710948BC
:1018000004F0ABFFE1B2064804F0AEFF80210548CA
:1018100004F0A3FF8021034804F09DFF08E00000CE
:10182000000C014000100140C40900204C000020C1
:101830004FF40071FD4804F08EFFFD498889FEF7E2
:10184000CDFF4FF48071F94804F085FF4FF400712B
:10185000F64804F082FF2912F64804F085FF802143
:10186000F24804F07AFF8021F04804F074FF4FF44E
:101870000071EE4804F06FFF4FF48071EB4804F004
:101880006AFF4FF40071E94804F067FFE9B2E948E4
:1018900004F06AFF8021E54800E00BE004F05DFF02
:1018A0008021E24804F057FF4FF40071DF4804F054
:1018B00052FF12E0DE488079012804D1DC4800881C
:1018C000401E001B84B2DA4948892146FEF7FDFF1D
:1018D000D74988892946FEF7F8FF4FF48071D3482D
:1018E00004F03BFF4FF40071D04804F036FFD048BD
:1018F0000189D04804F038FF8021CC4804F02DFF46
:101900008021CA4804F027FF4FF40071C74804F053
:1019100022FF4FF48071C54804F01DFF4FF40071A1
:10192000C24804F01AFF3146C24804F01DFF80216E
:10193000BE4804F012FF8021BC4804F00CFF4FF4B5
:101940000071BA4804F007FF70BD10B50446002CC2
:1019500060D1B7498871F02008804FF4A0704880AA
:101960000846808849F2413188420BD0B0488088CF
:1019700046F60401884205D0AD48808845F2103112
:1019800088421AD12C20AA4908812A2048812B207C
:1019900088810846808846F60401884205D0A4481C
:1019A000808845F21031884206D14FF4A070A049DA
:1019B00008804FF4F070488095E09D48808848F694
:1019C0008911884207D12220994908814E204881F7
:1019D0004F20888187E09648808845F210518842E0
:1019E00010D14FF43050924908814FF4285048816B
:1019F0004FF42C5088814FF4F07008804FF44870F9
:101A0000488070E022208A490881202048812120D6
:101A1000888168E00120864988714FF4A0700880B1
:101A2000F02048800846808849F24131884205D03C
:101A30007F48808845F21031884207D12C207C49AC
:101A400008812A2048812B20888139E078488088C5
:101A500046F60401884207D12C20754908812B20C5
:101A600048812A2088812BE07148808848F68911B6
:101A7000884207D122206E4908814F2048814E209C
:101A800088811DE06A48808845F21051884210D153
:101A90004FF43050664908814FF4285048814FF484
:101AA0002C5088814FF4487008804FF4F0704880C3
:101AB00006E022205E49088121204881202088817B
:101AC0005B48808846F60401884205D058488088E3
:101AD00045F21031884206D14FF4F0705449088025
:101AE0004FF4A07048800020FFF72FFA10BD2DE9B9
:101AF000FF5F04460D4616461F46A019401E86B2DB
:101B0000E819401E87B24A48808849F2413188422C
:101B10000BD04748808845F21031884205D04448B0
:101B2000808846F6040188427ED141494889FEF703
:101B300055FE4FF480713D4804F00DFE4FF40071E6
:101B40003A4804F00AFE21123A4804F00DFE8021C2
:101B5000364804F002FE8021344804F0FCFD4FF4C6
:101B60000071324804F0F7FD4FF480712F4804F003
:101B7000F2FD4FF400712D4804F0EFFDE1B22D4865
:101B800004F0F2FD8021294804F0E7FD8021274878
:101B900004F0E1FD4FF40071244804F0DCFD4FF443
:101BA0008071224804F0D7FD4FF400711F4804F003
:101BB000D4FD31121F4804F0D7FD80211B4804F0EA
:101BC000CCFD8021194804F0C6FD4FF40071174880
:101BD00004F0C1FD4FF48071144804F0BCFD4FF4D3
:101BE0000071124804F0B9FDF1B2124804F0BCFDD6
:101BF00080210E4804F0B1FD80210C4804F0ABFDBB
:101C00004FF40071094804F0A6FD09498889FEF7E0
:101C1000E5FD4FF48071054804F09DFD4FF400711F
:101C2000024804F09AFD07E069E00000001001405E
:101C3000C4090020000C01402912FE4804F094FD64
:101C40008021FD4804F089FD8021FB4804F083FDDC
:101C50004FF40071F84804F07EFD4FF48071F648AF
:101C600004F079FD4FF40071F34804F076FDE9B219
:101C7000F04804F079FD8021EF4804F06EFD8021EA
:101C8000ED4804F068FD4FF40071EB4804F063FD8B
:101C90004FF48071E84804F05EFD4FF40071E648AF
:101CA00004F05BFD3912E34804F05EFD8021E24858
:101CB00004F053FD8021E04804F04DFD4FF4007125
:101CC000DD4804F048FD4FF48071DB4804F043FD2B
:101CD0004FF40071D84804F040FDF9B2D54804F043
:101CE00043FD8021D44804F038FD8021D24804F01F
:101CF00032FD4FF40071D04804F02DFD53E1CF4880
:101D0000808845F2105188427DD1CC494889FEF740
:101D100065FD4FF48071C84804F01DFD4FF400715B
:101D2000C54804F01AFD2112C24804F01DFD8021AF
:101D3000C14804F012FD8021BF4804F00CFD4FF4AF
:101D40000071BD4804F007FDBC494989491C88B2AF
:101D5000FEF744FD4FF48071B74804F0FCFC4FF4EB
:101D60000071B54804F0F9FCE1B2B24804F0FCFCA3
:101D70008021B14804F0F1FC8021AF4804F0EBFC75
:101D80004FF40071AC4804F0E6FCAC494989891C69
:101D900088B2FEF723FD4FF48071A74804F0DBFC06
:101DA0004FF40071A44804F0D8FC3112A14804F0AB
:101DB000DBFC8021A04804F0D0FC80219E4804F088
:101DC000CAFC4FF400719C4804F0C5FC9B4949894A
:101DD000C91C88B2FEF702FD4FF48071964804F0EA
:101DE000BAFC4FF40071944804F0B7FCF1B291488A
:101DF00004F0BAFC8021904804F0AFFC80218E48AA
:101E000004F0A9FC00E087E04FF400718A4804F078
:101E1000A2FC8A498889FEF7E1FC4FF4807186486C
:101E200004F099FC4FF40071834804F096FC2912E9
:101E3000804804F099FC80217F4804F08EFC8021CA
:101E40007D4804F088FC4FF400717B4804F083FC6B
:101E50007A498989491C88B2FEF7C0FC4FF4807129
:101E6000754804F078FC4FF40071734804F075FC79
:101E7000E9B2704804F078FC80216F4804F06DFCF2
:101E800080216D4804F067FC4FF400716A4804F04B
:101E900062FC6A498989891C88B2FEF79FFC4FF46D
:101EA0008071654804F057FC4FF40071624804F0FB
:101EB00054FC39125F4804F057FC80215E4804F05E
:101EC0004CFC80215C4804F046FC4FF400715A48F9
:101ED00004F041FC59498989C91C88B2FEF77EFC8F
:101EE0004FF48071544804F036FC4FF400715248AE
:101EF00004F033FCF9B24F4804F036FC80214E4820
:101F000004F02BFC80214C4804F025FC4FF40071B8
:101F1000494804F020FC46E04848807901280ED169
:101F2000A846B94645480088801B401E80B20090F4
:101F300042480088001B401E1FFA80FB03E0A046B9
:101F4000B1460095BB463D48808848F689118842D5
:101F50000DD14FF0440A4420039048EA09201FFAAB
:101F600080F8C146452002904620019007E04FF0DE
:101F7000500A512003905220029053200190414674
:101F80005046FEF7A2FC49460398FEF79EFC0099D6
:101F90000298FEF79AFC59460198FEF796FC2946EE
:101FA0002046FEF7EDFCBDE8FF9F70B50446002615
:101FB00022480588408845432048808846F6040129
:101FC000884216D11D488079012812D100201B4972
:101FD00088712A2048812B20888100210846FEF73D
:101FE000CFFC0120154988712B2048812A20888147
:101FF00003E000210846FEF7C3FCFEF790FC002634
:1020000022E04FF480710C4804F0A5FB4FF40071FE
:10201000094804F0A2FB2146064804F0A5FB8021F4
:10202000054804F09AFB8021034804F094FB4FF428
:10203000007105E0000C014000100140C4090020BF
:10204000FE4804F088FB761CAE42DAD370BD08B5BA
:102050000121192004F092FF0121F94804F09FFBAF
:102060004FF4F860ADF8000010208DF80300032055
:102070008DF802006946F14804F0C0FA4FF4F861A7
:10208000EE4804F068FB4FF6FF70ADF800006946BB
:10209000EC4804F0B3FA4FF6FF71EA4804F05BFB3A
:1020A000322004F0E2F801210020FEF70EFC32207D
:1020B00004F0DBF80020FEF72AFCE349888008469C
:1020C0008088FF280ADB084680884FF6FF71884227
:1020D00004D0DD488088B0F5134F7CD1D320FEF7C3
:1020E0007DFBFEF7B7FBFEF7B5FBFEF7B3FBD6496A
:1020F0008880084680884FF6FF7101EA0020D249A7
:102100008880FEF7A7FBD04989880843CE4988809C
:102110000846808849F2413188426CD0BF20FEF7E2
:102120005DFBFEF797FBFEF795FBFEF793FBFEF7D3
:1021300091FBC5498880084680884FF6FF7101EA07
:102140000020C1498880FEF785FBBF498988084384
:10215000BD4988800846808846F6040188424AD0F6
:10216000D420FEF73BFBFEF775FBFEF773FBFEF793
:1021700071FBB5498880084680884FF6FF7101EAF7
:102180000020B1498880FEF765FBAF498988084384
:10219000AD4988800846808845F2103188422AD0AF
:1021A0004FF45A40FEF71AFBFEF754FB4FF45B4026
:1021B000FEF714FBFEF74EFBA34988800846808893
:1021C0004FF6FF7101EA00209F4988804FF45C4080
:1021D000FEF704FB00E00EE0FEF73CFB9A4989881D
:1021E00008439949888008468088B0F5004F02D19D
:1021F00045F2105088809448818894A00EF054FADB
:102200009148808849F2413188427CD1CF20FEF745
:10221000E5FA0020FEF700FBC120FEF7FDFA3020B2
:10222000FEF7FAFAED20FEF7D9FA6420FEF7F4FA89
:102230000320FEF7F1FA1220FEF7EEFA8120FEF7F6
:10224000EBFAE820FEF7CAFA8520FEF7E5FA10203F
:10225000FEF7E2FA7A20FEF7DFFACB20FEF7BEFAAD
:102260003920FEF7D9FA2C20FEF7D6FA0020FEF727
:10227000D3FA3420FEF7D0FA0220FEF7CDFAF72089
:10228000FEF7ACFA2020FEF7C7FAEA20FEF7A6FA1E
:102290000020FEF7C1FA0020FEF7BEFAC020FEF7CC
:1022A0009DFA1B20FEF7B8FAC120FEF797FA01202D
:1022B000FEF7B2FAC520FEF791FA3020FEF7ACFA2D
:1022C0003020FEF7A9FAC720FEF788FAB720FEF7FC
:1022D000A3FA3620FEF782FA4820FEF79DFA3A204C
:1022E000FEF77CFA5520FEF797FAB120FEF776FA52
:1022F0000020FEF791FA1A20FEF78EFAB620FEF7BC
:102300006DFA0A2000E0A9E0FEF786FAA220FEF7A7
:1023100083FAF220FEF762FA0020FEF77DFA26200B
:10232000FEF75CFA0120FEF777FAE020FEF756FA96
:102330000F20FEF771FA2A20FEF76EFA2820FEF72A
:102340006BFA0820FEF768FA0E20FEF765FA0820FF
:10235000FEF762FA5420FEF75FFAA920FEF75CFA56
:102360004320FEF759FA0A20FEF756FA0F20FEF72F
:1023700053FA0020FEF750FA0020FEF74DFA002035
:10238000FEF74AFA0020FEF747FAE120FEF726FAA8
:102390000020FEF741FA1520FEF73EFA1720FEF75F
:1023A0003BFA0720FEF738FA1120FEF735FA06202F
:1023B000FEF732FA2B20FEF72FFA5620FEF72CFA02
:1023C0003C20FEF729FA0520FEF726FA1020FEF73A
:1023D00023FA0F20FEF720FA3F20FEF71DFA3F20D8
:1023E000FEF71AFA0F20FEF717FA2B20FEF7F6F980
:1023F0000020FEF711FA0020FEF70EFA0120FEF78A
:102400000BFA3F20FEF708FA2A20FEF7E7F9002032
:10241000FEF702FA0020FEF7FFF90020FEF7FCF9B4
:10242000EF20FEF7F9F91120FEF7D8F9782003F034
:102430001CFF2920FEF7D2F903F00CBB001001406D
:1024400000023000000C0140C4090020204C43442D
:102450002049443A25780D0A00000000FE48808893
:1024600046F6040188427CD11120FEF7B7F914200A
:1024700003F0FBFED020FEF7B1F90720FEF7CCF900
:102480004220FEF7C9F91D20FEF7C6F9D120FEF75C
:10249000A5F90020FEF7C0F91A20FEF7BDF90920C2
:1024A000FEF7BAF9D220FEF799F90120FEF7B4F948
:1024B0002220FEF7B1F9C020FEF790F91020FEF7B8
:1024C000ABF93B20FEF7A8F90020FEF7A5F90220A2
:1024D000FEF7A2F91120FEF79FF9C520FEF77EF95D
:1024E0000320FEF799F9C820FEF778F90020FEF7DF
:1024F00093F92520FEF790F92120FEF78DF90520AC
:10250000FEF78AF90020FEF787F90A20FEF784F922
:102510006520FEF781F92520FEF77EF97720FEF78A
:102520007BF95020FEF778F90F20FEF775F90020AF
:10253000FEF772F9F820FEF751F90120FEF76CF969
:10254000FE20FEF74BF90020FEF766F90220FEF7A9
:1025500063F92020FEF742F93620FEF73FF9082004
:1025600000E02CE0FEF758F93A20FEF737F9552045
:10257000FEF752F92B20FEF731F90020FEF74CF957
:102580000020FEF749F90120FEF746F93F20FEF74B
:1025900043F92A20FEF722F90020FEF73DF900203A
:1025A000FEF73AF90120FEF737F9DF20FEF734F99C
:1025B000782003F05AFE2920FEF710F93CE7A648E0
:1025C000808845F21031884240F07C87ED20FEF78C
:1025D00005F90120FEF720F9FE20FEF71DF9EE2097
:1025E000FEF7FCF8DE20FEF717F92120FEF714F9BC
:1025F000F120FEF7F3F80120FEF70EF9DF20FEF7D9
:10260000EDF81020FEF708F9C420FEF7E7F88F2058
:10261000FEF702F9C620FEF7E1F80020FEF7FCF80D
:10262000E220FEF7F9F8E220FEF7F6F8E220FEF7E6
:10263000F3F8BF20FEF7D2F8AA20FEF7EDF8B0209D
:10264000FEF7CCF80D20FEF7E7F80020FEF7E4F8DF
:102650000D20FEF7E1F80020FEF7DEF81120FEF76E
:10266000DBF80020FEF7D8F81920FEF7D5F8002097
:10267000FEF7D2F82120FEF7CFF80020FEF7CCF8C5
:102680002D20FEF7C9F80020FEF7C6F83D20FEF722
:10269000C3F80020FEF7C0F85D20FEF7BDF800206B
:1026A000FEF7BAF85D20FEF7B7F80020FEF7B4F8A1
:1026B000B120FEF793F88020FEF7AEF80020FEF779
:1026C000ABF88B20FEF7A8F80020FEF7A5F89620BF
:1026D000FEF7A2F80020FEF79FF8B220FEF77EF882
:1026E0000020FEF799F80020FEF796F80220FEF78A
:1026F00093F80020FEF790F80320FEF78DF80020F5
:10270000FEF78AF8B320FEF769F80020FEF784F898
:102710000020FEF781F80020FEF77EF80020FEF78B
:102720007BF80020FEF778F80020FEF775F800200F
:10273000FEF772F80020FEF76FF80020FEF76CF845
:102740000020FEF769F80020FEF766F80020FEF78B
:1027500063F80020FEF760F80020FEF75DF8002027
:10276000FEF75AF80020FEF757F80020FEF754F85D
:102770000020FEF751F80020FEF74EF80020FEF78B
:102780004BF80020FEF748F80020FEF745F800203F
:10279000FEF742F80020FEF73FF8B420FEF71EF8DF
:1027A0008B20FEF739F80020FEF736F89620FEF76A
:1027B00033F80020FEF730F8A120FEF72DF80020B6
:1027C000FEF72AF8B520FEF709F80220FEF724F8F4
:1027D0000020FEF721F80320FEF71EF80020FEF788
:1027E0001BF80420FEF718F80020FEF715F8B620B5
:1027F000FDF7F4FF0020FEF70FF80020FEF70CF8BD
:10280000B720FDF7EBFF0020FEF706F80020FEF7EB
:1028100003F83F20FEF700F80020FDF7FDFF5E20E3
:10282000FDF7FAFF0020FDF7F7FF6420FDF7F4FF46
:102830000020FDF7F1FF8C20FDF7EEFF0020FDF7F3
:10284000EBFFAC20FDF7E8FF0020FDF7E5FFDC2003
:10285000FDF7E2FF002001E0C4090020FDF7DCFFE6
:102860007020FDF7D9FF0020FDF7D6FF9020FDF77F
:10287000D3FF0020FDF7D0FFEB20FDF7CDFF0020B8
:10288000FDF7CAFFDC20FDF7C7FF0020FDF7C4FFFE
:10289000B820FDF7A3FF0020FDF7BEFF0020FDF7E5
:1028A000BBFF0020FDF7B8FF0020FDF7B5FF0020BB
:1028B000FDF7B2FF0020FDF7AFFF0020FDF7ACFFF2
:1028C0000020FDF7A9FFBA20FDF788FF2420FDF7BF
:1028D000A3FF0020FDF7A0FF0020FDF79DFF0020D3
:1028E000FDF79AFFC120FDF779FF2020FDF794FF47
:1028F0000020FDF791FF5420FDF78EFF0020FDF72B
:102900008BFFFF20FDF788FF0020FDF785FFC22029
:10291000FDF764FF0A20FDF77FFF0020FDF77CFF35
:102920000420FDF779FF0020FDF776FFC320FDF7B7
:1029300055FF3C20FDF770FF0020FDF76DFF3A20AA
:10294000FDF76AFF0020FDF767FF3920FDF764FF00
:102950000020FDF761FF3720FDF75EFF0020FDF747
:102960005BFF3C20FDF758FF0020FDF755FF3620A8
:10297000FDF752FF0020FDF74FFF3220FDF74CFF1F
:102980000020FDF749FF2F20FDF746FF0020FDF74F
:1029900043FF2C20FDF740FF0020FDF73DFF2920DD
:1029A000FDF73AFF0020FDF737FF2620FDF734FF43
:1029B0000020FDF731FF2420FDF72EFF0020FDF75A
:1029C0002BFF2420FDF728FF0020FDF725FF232003
:1029D000FDF722FF0020FDF71FFF3C20FDF71CFF45
:1029E0000020FDF719FF3620FDF716FF0020FDF748
:1029F00013FF3220FDF710FF0020FDF70DFF2F2001
:102A0000FDF70AFF0020FDF707FF2C20FDF704FF6C
:102A10000020FDF701FF2920FDF7FEFE0020FDF755
:102A2000FBFE2620FDF7F8FE0020FDF7F5FE242032
:102A3000FDF7F2FE0020FDF7EFFE2420FDF7ECFE8F
:102A40000020FDF7E9FE2320FDF7E6FE0020FDF75C
:102A5000E3FEC420FDF7C2FE6220FDF7DDFE00208C
:102A6000FDF7DAFE0520FDF7D7FE0020FDF7D4FEC6
:102A70008420FDF7D1FE0020FDF7CEFEF020FDF70B
:102A8000CBFE0020FDF7C8FE1820FDF7C5FE002094
:102A9000FDF7C2FEA420FDF7BFFE0020FDF7BCFE3F
:102AA0001820FDF7B9FE0020FDF7B6FE5020FDF717
:102AB000B3FE0020FDF7B0FE0C20FDF7ADFE0020B8
:102AC000FDF7AAFE1720FDF7A7FE0020FDF7A4FEE4
:102AD0009520FDF7A1FE0020FDF79EFEF320FDF7F7
:102AE0009BFE0020FDF798FEE620FDF795FE0020F6
:102AF000FDF792FEC520FDF771FE3220FDF78CFE3A
:102B00000020FDF789FE4420FDF786FE0020FDF73A
:102B100083FE6520FDF780FE0020FDF77DFE762018
:102B2000FDF77AFE0020FDF777FE8820FDF774FEA2
:102B30000020FDF771FEC620FDF750FE2020FDF7B6
:102B40006BFE0020FDF768FE1720FDF765FE0020F4
:102B5000FDF762FE0120FDF75FFE0020FDF75CFE41
:102B6000C720FDF73BFE0020FDF756FE0020FDF7D5
:102B700053FE0020FDF750FE0020FDF74DFEC8205B
:102B8000FDF72CFE0020FDF747FE0020FDF744FE78
:102B90000020FDF741FE0020FDF73EFEC920FDF7B5
:102BA0001DFE0020FDF738FE0020FDF735FE002059
:102BB000FDF732FE0020FDF72FFE0020FDF72CFE72
:102BC0000020FDF729FE0020FDF726FE0020FDF77E
:102BD00023FE0020FDF720FE0020FDF71DFE002053
:102BE000FDF71AFE0020FDF717FE0020FDF714FE8A
:102BF0000020FDF711FE0020FDF70EFE0020FDF77E
:102C00000BFEE020FDF7EAFD1620FDF705FE002093
:102C1000FDF702FE1C20FDF7FFFD0020FDF7FCFD87
:102C20002120FDF7F9FD0020FDF7F6FD3620FDF728
:102C3000F3FD0020FDF7F0FD4620FDF7EDFD00203F
:102C4000FDF7EAFD5220FDF7E7FD0020FDF7E4FD6A
:102C50006420FDF7E1FD0020FDF7DEFD7A20FDF7A1
:102C6000DBFD0020FDF7D8FD8B20FDF7D5FD002012
:102C7000FDF7D2FD9920FDF7CFFD0020FDF7CCFD3B
:102C8000A820FDF7C9FD0020FDF7C6FDB920FDF71E
:102C9000C3FD0020FDF7C0FDC420FDF7BDFD0020F1
:102CA000FDF7BAFDCA20FDF7B7FD0020FDF7B4FD22
:102CB000D220FDF7B1FD0020FDF7AEFDD920FDF7D4
:102CC000ABFD0020FDF7A8FDE020FDF7A5FD0020ED
:102CD000FDF7A2FDF320FDF79FFD0020FDF79CFD11
:102CE000E120FDF77BFD1620FDF796FD0020FDF7A6
:102CF00093FD1C20FDF790FD0020FDF78DFD2220A7
:102D0000FDF78AFD0020FDF787FD3620FDF784FDE5
:102D10000020FDF781FD4520FDF77EFD0020FDF739
:102D20007BFD5220FDF778FD0020FDF775FD642046
:102D3000FDF772FD0020FDF76FFD7A20FDF76CFDB9
:102D40000020FDF769FD8B20FDF766FD0020FDF7F3
:102D500063FD9920FDF760FD0020FDF75DFDA820D3
:102D6000FDF75AFD0020FDF757FDB920FDF754FD92
:102D70000020FDF751FDC420FDF74EFD0020FDF7BA
:102D80004BFDCA20FDF748FD0020FDF745FDD22090
:102D9000FDF742FD0020FDF73FFDD820FDF73CFD8B
:102DA0000020FDF739FDE020FDF736FD0020FDF79E
:102DB00033FDF320FDF730FD0020FDF72DFDE2206F
:102DC000FDF70CFD0520FDF727FD0020FDF724FD94
:102DD0000B20FDF721FD0020FDF71EFD1B20FDF758
:102DE0001BFD0020FDF718FD3420FDF715FD002028
:102DF000FDF712FD4420FDF70FFD0020FDF70CFD4F
:102E00004F20FDF709FD0020FDF706FD6120FDF7CD
:102E100003FD0020FDF700FD7920FDF7FDFC0020FB
:102E2000FDF7FAFC8820FDF7F7FC0020FDF7F4FC25
:102E30009720FDF7F1FC0020FDF7EEFCA620FDF742
:102E4000EBFC0020FDF7E8FCB720FDF7E5FC0020D7
:102E5000FDF7E2FCC220FDF7DFFC0020FDF7DCFC03
:102E6000C720FDF7D9FC0020FDF7D6FCD120FDF7E7
:102E7000D3FC0020FDF7D0FCD620FDF7CDFC0020D0
:102E8000FDF7CAFCDD20FDF7C7FC0020FDF7C4FC00
:102E9000F320FDF7C1FC0020FDF7BEFCE320FDF7A9
:102EA0009DFC0520FDF7B8FC0020FDF7B5FC0A20CD
:102EB000FDF7B2FC0020FDF7AFFC1C20FDF7ACFCD9
:102EC0000020FDF7A9FC3320FDF7A6FC0020FDF74C
:102ED000A3FC4420FDF7A0FC0020FDF79DFC502042
:102EE000FDF79AFC0020FDF797FC6220FDF794FCAB
:102EF0000020FDF791FC7820FDF78EFC0020FDF707
:102F00008BFC8820FDF788FC0020FDF785FC9720CE
:102F1000FDF782FC0020FDF77FFCA620FDF77CFC7E
:102F20000020FDF779FCB720FDF776FC0020FDF7C7
:102F300073FCC220FDF770FC0020FDF76DFCC7207C
:102F4000FDF76AFC0020FDF767FCD120FDF764FC6B
:102F50000020FDF761FCD520FDF75EFC0020FDF7A9
:102F60005BFCDD20FDF758FC0020FDF755FCF3204D
:102F7000FDF752FC0020FDF74FFCE420FDF72EFC8E
:102F80000120FDF749FC0020FDF746FC0120FDF77C
:102F900043FC0020FDF740FC0220FDF73DFC002033
:102FA000FDF73AFC2A20FDF737FC0020FDF734FC42
:102FB0003C20FDF731FC0020FDF72EFC4B20FDF7F7
:102FC0002BFC0020FDF728FC5D20FDF725FC0020F0
:102FD000FDF722FC7420FDF71FFC0020FDF71CFC10
:102FE0008420FDF719FC0020FDF716FC9320FDF767
:102FF00013FC0020FDF710FCA220FDF70DFC0020C3
:10300000FDF70AFCB320FDF707FC0020FDF704FCE8
:10301000BE20FDF701FC0020FDF7FEFBC420FDF7FC
:10302000FBFB0020FDF7F8FBCD20FDF7F5FB0020B2
:10303000FDF7F2FBD320FDF7EFFB0020FDF7ECFBE3
:10304000DD20FDF7E9FB0020FDF7E6FBF320FDF7AF
:10305000E3FB0020FDF7E0FBE520FDF7BFFB0020D0
:10306000FDF7DAFB0020FDF7D7FB0020FDF7D4FBCE
:103070000020FDF7D1FB0220FDF7CEFB0020FDF77D
:10308000CBFB2920FDF7C8FB0020FDF7C5FB3C204A
:10309000FDF7C2FB0020FDF7BFFB4B20FDF7BCFB9B
:1030A0000020FDF7B9FB5D20FDF7B6FB0020FDF722
:1030B000B3FB7420FDF7B0FB0020FDF7ADFB8420CF
:1030C000FDF7AAFB0020FDF7A7FB9320FDF7A4FB6B
:1030D0000020FDF7A1FBA220FDF79EFB0020FDF7DD
:1030E0009BFBB320FDF798FB0020FDF795FBBE206E
:1030F000FDF792FB0020FDF78FFBC420FDF78CFB52
:103100000020FDF789FBCD20FDF786FB0020FDF7B1
:1031100083FBD320FDF780FB0020FDF77DFBDC2047
:10312000FDF77AFB0020FDF777FBF320FDF774FB3A
:103130000020FDF771FBE620FDF750FB1120FDF7A5
:103140006BFB0020FDF768FB3420FDF765FB0020DA
:10315000FDF762FB5620FDF75FFB0020FDF75CFBEF
:103160007620FDF759FB0020FDF756FB7720FDF791
:1031700053FB0020FDF750FB6620FDF74DFB0020C0
:10318000FDF74AFB8820FDF747FB0020FDF744FBD5
:103190009920FDF741FB0020FDF73EFBBB20FDF72A
:1031A0003BFB0020FDF738FB9920FDF735FB0020A5
:1031B000FDF732FB6620FDF72FFB0020FDF72CFB0F
:1031C0005520FDF729FB0020FDF726FB5520FDF7D4
:1031D00023FB0020FDF720FB4520FDF71DFB002011
:1031E000FDF71AFB4320FDF717FB0020FDF714FB4A
:1031F0004420FDF711FB0020FDF70EFBE720FDF753
:10320000EDFA3220FDF708FB0020FDF705FB552005
:10321000FDF702FB0020FDF7FFFA7620FDF7FCFA30
:103220000020FDF7F9FA6620FDF7F6FA0020FDF719
:10323000F3FA6720FDF7F0FA0020FDF7EDFA6720BA
:10324000FDF7EAFA0020FDF7E7FA8720FDF7E4FA38
:103250000020FDF7E1FA9920FDF7DEFA0020FDF7E6
:10326000DBFABB20FDF7D8FA0020FDF7D5FA99204C
:10327000FDF7D2FA0020FDF7CFFA7720FDF7CCFA60
:103280000020FDF7C9FA4420FDF7C6FA0020FDF73B
:10329000C3FA5620FDF7C0FA0020FDF7BDFA23203F
:1032A000FDF7BAFA0020FDF7B7FA3320FDF7B4FABC
:1032B0000020FDF7B1FA4520FDF7AEFA0020FDF73A
:1032C000ABFAE820FDF78AFA0020FDF7A5FA002006
:1032D000FDF7A2FA9920FDF79FFA0020FDF79CFA6E
:1032E0008720FDF799FA0020FDF796FA8820FDF770
:1032F00093FA0020FDF790FA7720FDF78DFA002071
:10330000FDF78AFA6620FDF787FA0020FDF784FAB8
:103310008820FDF781FA0020FDF77EFAAA20FDF74C
:103320007BFA0020FDF778FABB20FDF775FA002044
:10333000FDF772FA9920FDF76FFA0020FDF76CFA9D
:103340006620FDF769FA0020FDF766FA5520FDF7C3
:1033500063FA0020FDF760FA5520FDF75DFA0020C2
:10336000FDF75AFA4420FDF757FA0020FDF754FA0A
:103370004420FDF751FA0020FDF74EFA5520FDF7E5
:103380004BFA0020FDF748FAE920FDF727FAAA20BA
:10339000FDF742FA0020FDF73FFA0020FDF73CFA66
:1033A0000020FDF739FA0020FDF718FAAA20FDF7F2
:1033B00033FACF20FDF712FA0020FDF72DFA002096
:1033C000FDF72AFA0020FDF727FA0020FDF724FA7E
:1033D0000020FDF721FA0020FDF71EFA0020FDF77E
:1033E0001BFA0020FDF718FA0020FDF715FA00205F
:1033F000FDF712FA0020FDF70FFA0020FDF70CFA96
:103400000020FDF709FA0020FDF706FA0020FDF77D
:1034100003FA0020FDF700FA0020FDF7FDF9F02087
:10342000FDF7DCF90020FDF7F7F95020FDF7F4F97E
:103430000020FDF7F1F90020FDF7EEF90020FDF77F
:10344000EBF9F320FDF7CAF90020FDF7E5F9F920C3
:10345000FDF7C4F90620FDF7DFF91020FDF7DCF9D0
:103460002920FDF7D9F90020FDF7D6F93A20FDF71C
:10347000B5F95520FDF7D0F91120FDF7AFF964201B
:1034800002F0F3FE2920FDF7A9F93520FDF7A6F992
:103490000020FDF7C1F95120FDF7A0F9FF20FDF74D
:1034A000BBF95320FDF79AF92C20FDF7B5F955200B
:1034B000FDF794F98220FDF7AFF92C20FDF78EF986
:1034C00002F0C8BAFE48808845F2105188427DD18A
:1034D00055214FF47040FDF7F8F9AA214FF2010091
:1034E000FDF7F3F952214FF20200FDF7EEF9082142
:1034F0004FF20300FDF7E9F901214FF20400FDF757
:10350000E4F90D214FF43040FDF7DFF90D214BF2C6
:103510000100FDF7DAF90D214BF20200FDF7D5F9B4
:1035200034214FF43640FDF7D0F934214BF20160DD
:10353000FDF7CBF934214BF20260FDF7C6F90D21FE
:103540004FF43140FDF7C1F90D214BF20110FDF7A9
:10355000BCF90D214BF20210FDF7B7F934214FF4FD
:103560003740FDF7B2F934214BF20170FDF7ADF9A8
:1035700034214BF20270FDF7A8F900214FF43240DC
:10358000FDF7A3F900214BF20120FDF79EF9002180
:103590004BF20220FDF799F924214FF43840FDF752
:1035A00094F924214BF60100FDF78FF924214BF605
:1035B0000200FDF78AF901214FF43F40FDF785F93C
:1035C0000F214FF43340FDF780F900E0FDE30F21B8
:1035D0004BF20130FDF779F90F214BF20230FDF784
:1035E00074F934214FF43940FDF76FF934214BF66B
:1035F0000110FDF76AF934214BF60210FDF765F969
:1036000008214FF43540FDF760F908214BF20150D5
:10361000FDF75BF908214BF20250FDF756F9032143
:103620004FF44240FDF751F924214FF43A40FDF7A1
:103630004CF924214BF60120FDF747F924214BF6E4
:103640000220FDF742F900214FF43C40FDF73DF91F
:1036500078214BF60140FDF738F900214BF6024086
:10366000FDF733F900214FF43D40FDF72EF97821A5
:103670004BF60150FDF729F900214BF60250FDF7FA
:1036800024F900214FF43E40FDF71FF964214BF669
:103690000160FDF71AF900214FF45140FDF715F9CB
:1036A00033214DF20110FDF710F900214DF2021007
:1036B000FDF70BF934214DF20310FDF706F9002157
:1036C0004DF20410FDF701F93A214DF20510FDF716
:1036D000FCF800214DF20610FDF7F7F84A214DF2F3
:1036E0000710FDF7F2F800214DF20810FDF7EDF894
:1036F0005C214DF20910FDF7E8F800214DF20A10A7
:10370000FDF7E3F881214DF20B10FDF7DEF8002103
:103710004DF20C10FDF7D9F8A6214DF20D10FDF772
:10372000D4F800214DF20E10FDF7CFF8E5214DF24F
:103730000F10FDF7CAF801214DF21010FDF7C5F882
:1037400013214DF21110FDF7C0F801214DF21210B6
:10375000FDF7BBF854214DF21310FDF7B6F8012127
:103760004DF21410FDF7B1F882214DF21510FDF75E
:10377000ACF801214DF21610FDF7A7F8CA214DF261
:103780001710FDF7A2F802214DF21810FDF79DF871
:1037900000214DF21910FDF798F802214DF21A1090
:1037A000FDF793F801214DF21B10FDF78EF8022171
:1037B0004DF21C10FDF789F834214DF21D10FDF774
:1037C00084F802214DF21E10FDF77FF867214DF2BB
:1037D0001F10FDF77AF802214DF22010FDF775F861
:1037E00084214DF22110FDF770F802214DF22210D4
:1037F000FDF76BF8A4214DF22310FDF766F80221C6
:103800004DF22410FDF761F8B7214DF22510FDF7B8
:103810005CF802214DF22610FDF757F8CF214DF24A
:103820002710FDF752F802214DF22810FDF74DF850
:10383000DE214DF22910FDF748F802214DF22A1041
:10384000FDF743F8F2214DF22B10FDF73EF802216F
:103850004DF22C10FDF739F8FE214DF22D10FDF739
:1038600034F803214DF22E10FDF72FF810214DF200
:103870002F10FDF72AF803214DF23010FDF725F83F
:1038800033214DF23110FDF720F803214DF23210B3
:10389000FDF71BF86D214DF23310FDF716F80021EE
:1038A0004FF45240FDF711F833214DF20120FDF79E
:1038B0000CF800214DF20220FDF707F8342101E059
:1038C000C40900204DF20320FCF7FFFF00214DF258
:1038D0000420FCF7FAFF3A214DF20520FCF7F5FF32
:1038E00000214DF20620FCF7F0FF4A214DF207209F
:1038F000FCF7EBFF00214DF20820FCF7E6FF5C210E
:103900004DF20920FCF7E1FF00214DF20A20FCF7FF
:10391000DCFF81214DF20B20FCF7D7FF00214DF297
:103920000C20FCF7D2FFA6214DF20D20FCF7CDFFB5
:1039300000214DF20E20FCF7C8FFE5214DF20F20CB
:10394000FCF7C3FF01214DF21020FCF7BEFF13214D
:103950004DF21120FCF7B9FF01214DF21220FCF7C6
:10396000B4FF54214DF21320FCF7AFFF01214DF2BB
:103970001420FCF7AAFF82214DF21520FCF7A5FFC9
:1039800001214DF21620FCF7A0FFCA214DF21720AD
:10399000FCF79BFF02214DF21820FCF796FF002157
:1039A0004DF21920FCF791FF02214DF21A20FCF78D
:1039B0008CFF01214DF21B20FCF787FF02214DF205
:1039C0001C20FCF782FF34214DF21D20FCF77DFF07
:1039D00002214DF21E20FCF778FF67214DF21F20D7
:1039E000FCF773FF02214DF22020FCF76EFF8421CB
:1039F0004DF22120FCF769FF02214DF22220FCF755
:103A000064FFA4214DF22320FCF75FFF02214DF259
:103A10002420FCF75AFFB7214DF22520FCF755FF73
:103A200002214DF22620FCF750FFCF214DF2272036
:103A3000FCF74BFF02214DF22820FCF746FFDE2168
:103A40004DF22920FCF741FF02214DF22A20FCF71C
:103A50003CFFF2214DF22B20FCF737FF02214DF203
:103A60002C20FCF732FFFE214DF22D20FCF72DFF1C
:103A700003214DF22E20FCF728FF10214DF22F20BC
:103A8000FCF723FF03214DF23020FCF71EFF33210A
:103A90004DF23120FCF719FF03214DF23220FCF7E3
:103AA00014FF6D214DF23320FCF70FFF00214FF47E
:103AB0005340FCF70AFF33214DF20130FCF705FFBC
:103AC00000214DF20230FCF700FF34214DF20330AB
:103AD000FCF7FBFE00214DF20430FCF7F6FE3A2124
:103AE0004DF20530FCF7F1FE00214DF20630FCF7F7
:103AF000ECFE4A214DF20730FCF7E7FE00214DF2C3
:103B00000830FCF7E2FE5C214DF20930FCF7DDFEE7
:103B100000214DF20A30FCF7D8FE81214DF20B3026
:103B2000FCF7D3FE00214DF20C30FCF7CEFEA621AF
:103B30004DF20D30FCF7C9FE00214DF20E30FCF7BE
:103B4000C4FEE5214DF20F30FCF7BFFE01214DF21E
:103B50001030FCF7BAFE13214DF21130FCF7B5FE20
:103B600001214DF21230FCF7B0FE54214DF213301A
:103B7000FCF7ABFE01214DF21430FCF7A6FE8221CA
:103B80004DF21530FCF7A1FE01214DF21630FCF785
:103B90009CFECA214DF21730FCF797FE02214DF230
:103BA0001830FCF792FE00214DF21930FCF78DFE23
:103BB00002214DF21A30FCF788FE01214DF21B3034
:103BC000FCF783FE02214DF21C30FCF77EFE34210F
:103BD0004DF21D30FCF779FE02214DF21E30FCF74C
:103BE00074FE67214DF21F30FCF76FFE02214DF28B
:103BF0002030FCF76AFE84214DF22130FCF765FE8F
:103C000002214DF22230FCF760FEA4214DF2233058
:103C1000FCF75BFE02214DF22430FCF756FEB72183
:103C20004DF22530FCF751FE02214DF22630FCF713
:103C30004CFECF214DF22730FCF747FE02214DF21A
:103C40002830FCF742FEDE214DF22930FCF73DFE24
:103C500002214DF22A30FCF738FEF2214DF22B30D2
:103C6000FCF733FE02214DF22C30FCF72EFEFE2134
:103C70004DF22D30FCF729FE03214DF22E30FCF7DA
:103C800024FE10214DF22F30FCF71FFE03214DF2D0
:103C90003030FCF71AFE33214DF23130FCF715FEBF
:103CA00003214DF23230FCF710FE6D214DF233301E
:103CB000FCF70BFE00214FF45440FCF706FE3321C5
:103CC0004DF20140FCF701FE00214DF20240FCF7ED
:103CD000FCFD34214DF20340FCF7F7FD00214DF2CD
:103CE0000440FCF7F2FD3A214DF20540FCF7EDFDF2
:103CF00000214DF20640FCF7E8FD4A214DF2074055
:103D0000FCF7E3FD00214DF20840FCF7DEFD5C21ED
:103D10004DF20940FCF7D9FD00214DF20A40FCF7B5
:103D2000D4FD81214DF20B40FCF7CFFD00214DF277
:103D30000C40FCF7CAFDA6214DF20D40FCF7C5FD75
:103D400000214DF20E40FCF7C0FDE5214DF20F4081
:103D5000FCF7BBFD01214DF21040FCF7B6FD13212D
:103D60004DF21140FCF7B1FD01214DF21240FCF77C
:103D7000ACFD54214DF21340FCF7A7FD01214DF29B
:103D80001440FCF7A2FD82214DF21540FCF79DFD89
:103D900001214DF21640FCF798FDCA214DF2174063
:103DA000FCF793FD02214DF21840FCF78EFD002137
:103DB0004DF21940FCF789FD02214DF21A40FCF743
:103DC00084FD01214DF21B4000E006E3FCF77DFD80
:103DD00002214DF21C40FCF778FD34214DF21D40CC
:103DE000FCF773FD02214DF21E40FCF76EFD6721CA
:103DF0004DF21F40FCF769FD02214DF22040FCF717
:103E000064FD84214DF22140FCF75FFD02214DF25B
:103E10002240FCF75AFDA4214DF22340FCF755FD4A
:103E200002214DF22440FCF750FDB7214DF2254010
:103E3000FCF74BFD02214DF22640FCF746FDCF2159
:103E40004DF22740FCF741FD02214DF22840FCF7DE
:103E50003CFDDE214DF22940FCF737FD02214DF2F9
:103E60002A40FCF732FDF2214DF22B40FCF72DFDEC
:103E700002214DF22C40FCF728FDFE214DF22D4091
:103E8000FCF723FD03214DF22E40FCF71EFD10210F
:103E90004DF22F40FCF719FD03214DF23040FCF7A5
:103EA00014FD33214DF23140FCF70FFD03214DF29B
:103EB0003240FCF70AFD6D214DF23340FCF705FD61
:103EC00000214FF45540FCF700FD33214DF2015025
:103ED000FCF7FBFC00214DF20250FCF7F6FC34210C
:103EE0004DF20350FCF7F1FC00214DF20450FCF7B9
:103EF000ECFC3A214DF20550FCF7E7FC00214DF2B5
:103F00000650FCF7E2FC4A214DF20750FCF7DDFCBD
:103F100000214DF20850FCF7D8FC5C214DF209500D
:103F2000FCF7D3FC00214DF20A50FCF7CEFC8121B6
:103F30004DF20B50FCF7C9FC00214DF20C50FCF780
:103F4000C4FCA6214DF20D50FCF7BFFC00214DF240
:103F50000E50FCF7BAFCE5214DF20F50FCF7B5FC12
:103F600001214DF21050FCF7B0FC13214DF211501D
:103F7000FCF7ABFC01214DF21250FCF7A6FC5421DA
:103F80004DF21350FCF7A1FC01214DF21450FCF747
:103F90009CFC82214DF21550FCF797FC01214DF25B
:103FA0001650FCF792FCCA214DF21750FCF78DFC1D
:103FB00002214DF21850FCF788FC00214DF21950F7
:103FC000FCF783FC02214DF21A50FCF77EFC012124
:103FD0004DF21B50FCF779FC02214DF21C50FCF70E
:103FE00074FC34214DF21D50FCF76FFC02214DF2A0
:103FF0001E50FCF76AFC67214DF21F50FCF765FC70
:1040000002214DF22050FCF760FC84214DF221503A
:10401000FCF75BFC02214DF22250FCF756FCA42178
:104020004DF22350FCF751FC02214DF22450FCF7D5
:104030004CFCB7214DF22550FCF747FC02214DF214
:104040002650FCF742FCCF214DF22750FCF73DFCF7
:1040500002214DF22850FCF738FCDE214DF22950A8
:10406000FCF733FC02214DF22A50FCF72EFCF22122
:104070004DF22B50FCF729FC02214DF22C50FCF79D
:1040800024FCFE214DF22D50FCF71FFC03214DF2C4
:104090002E50FCF71AFC10214DF22F50FCF715FCA6
:1040A00003214DF23050FCF710FC33214DF231501A
:1040B000FCF70BFC03214DF23250FCF706FC6D219E
:1040C0004DF23350FCF701FC00214FF45640FCF751
:1040D000FCFB33214DF20160FCF7F7FB00214DF2B0
:1040E0000260FCF7F2FB34214DF20360FCF7EDFBBC
:1040F00000214DF20460FCF7E8FB3A214DF2056027
:10410000FCF7E3FB00214DF20660FCF7DEFB4A21E1
:104110004DF20760FCF7D9FB00214DF20860FCF777
:10412000D4FB5C214DF20960FCF7CFFB00214DF27E
:104130000A60FCF7CAFB81214DF20B60FCF7C5FB5E
:1041400000214DF20C60FCF7C0FBA6214DF20D6082
:10415000FCF7BBFB00214DF20E60FCF7B6FBE5213E
:104160004DF20F60FCF7B1FB01214DF21060FCF73E
:10417000ACFB13214DF21160FCF7A7FB01214DF2BE
:104180001260FCF7A2FB54214DF21360FCF79DFB7B
:1041900001214DF21460FCF798FB82214DF215606D
:1041A000FCF793FB01214DF21660FCF78EFBCA2150
:1041B0004DF21760FCF789FB02214DF21860FCF705
:1041C00084FB00214DF21960FCF77FFB02214DF2C8
:1041D0001A60FCF77AFB01214DF21B60FCF775FBBE
:1041E00002214DF21C60FCF770FB34214DF21D6082
:1041F000FCF76BFB02214DF21E60FCF766FB6721AA
:104200004DF21F60FCF761FB02214DF22060FCF7CC
:104210005CFB84214DF22160FCF757FB02214DF23B
:104220002260FCF752FBA4214DF22360FCF74DFB0A
:1042300002214DF22460FCF748FBB7214DF22560C6
:10424000FCF743FB02214DF22660FCF73EFBCF2139
:104250004DF22760FCF739FB02214DF22860FCF794
:1042600034FBDE214DF22960FCF72FFB02214DF2D9
:104270002A60FCF72AFBF2214DF22B60FCF725FBAC
:1042800002214DF22C60FCF720FBFE214DF22D6047
:10429000FCF71BFB03214DF22E60FCF716FB1021EF
:1042A0004DF22F60FCF711FB03214DF23060FCF75B
:1042B0000CFB33214DF23160FCF707FB03214DF27B
:1042C0003260FCF702FB6D214DF23360FCF7FDFA22
:1042D00055214FF47040FCF7F8FAAA214FF2010083
:1042E000FCF7F3FA52214FF20200FCF7EEFA082134
:1042F0004FF20300FCF7E9FA00214FF20400FCF74B
:10430000E4FACC214FF43140FCF7DFFA00214BF204
:104310000110FCF7DAFA05214FF43640FCF7D5FA24
:1043200070214FF43740FCF7D0FA70214BF2017046
:10433000FCF7CBFA01214FF43840FCF7C6FA032111
:104340004BF60100FCF7C1FA03214BF60200FCF723
:10435000BCFA03214BF60300FCF7B7FA02214FF435
:104360003C40FCF7B2FA00214BF60140FCF7ADFAF5
:1043700000214BF60240FCF7A8FAD0214FF4494047
:10438000FCF7A3FA02214CF60110FCF79EFA50212B
:104390004CF60210FCF799FA50214CF60310FCF78A
:1043A00094FA50214CF60410FCF78FFA00214FF4D8
:1043B0005450FCF78AFA55214FF46850FCF785FAFF
:1043C0004FF48850FCF70AFA782001F023FF4FF4ED
:1043D0002450FCF703FA01F03DBBFE48808849F207
:1043E000253188427ED147F6F001E520FCF76DFAD1
:1043F0004FF480710120FCF768FA4FF4E06102206D
:10440000FCF763FA41F230010320FCF75EFA002169
:104410000420FCF75AFA40F202210820FCF755FA72
:1044200000210920FCF751FA00210A20FCF74DFA7F
:1044300000210C20FCF749FA00210D20FCF745FA79
:1044400000210F20FCF741FA00211020FCF73DFA73
:1044500007211120FCF739FA00211220FCF735FA68
:1044600000211320FCF731FA00210720FCF72DFA78
:1044700041F290611020FCF728FA40F22721112028
:10448000FCF723FA9D211220FCF71FFA4FF4C851C4
:104490001320FCF71AFA25212920FCF716FA0D2122
:1044A0002B20FCF712FA07213020FCF70EFA40F21D
:1044B00003313120FCF709FA03213220FCF705FA19
:1044C00040F206213520FCF700FA08213620FCF7DF
:1044D000FCF940F206413720FCF7F7F94FF441713F
:1044E000382000E057E0FCF7F0F907213920FCF70D
:1044F000ECF940F202613C20FCF7E7F908213D208D
:10450000FCF7E3F900215020FCF7DFF9EF215120FF
:10451000FCF7DBF900215220FCF7D7F940F23F11FC
:104520005320FCF7D2F94FF427416020FCF7CDF976
:1045300001216120FCF7C9F900216A20FCF7C5F9C7
:1045400000218020FCF7C1F900218120FCF7BDF992
:1045500000218220FCF7B9F900218320FCF7B5F98E
:1045600000218420FCF7B1F900218520FCF7ADF98A
:1045700010219020FCF7A9F94FF4C0619220FCF7BC
:10458000A4F940F233110720FCF79FF92221002003
:10459000FCF79BF91FE78F48808849F22831884251
:1045A0007ED141F28F01EC20FCF78FF941F23421EA
:1045B000EF20FCF78AF94FF480710120FCF785F9B0
:1045C0004FF4E0610220FCF780F941F23001032052
:1045D000FCF77BF900210420FCF777F940F2022177
:1045E0000820FCF772F900210920FCF76EF9002180
:1045F0000A20FCF76AF901210C20FCF766F900217A
:104600000D20FCF762F900210F20FCF75EF9002174
:104610001020FCF75AF907211120FCF756F9002168
:104620001220FCF752F900211320FCF74EF901216A
:104630000720FCF74AF9322001F017FE41F29041C1
:104640001020FCF742F940F227211120FCF73DF938
:10465000322001F00AFE8A211220FCF736F93220BE
:1046600001F003FE4FF4D0511320FCF72EF9062180
:104670002920FCF72AF90D212B20FCF726F93220FE
:1046800001F0F3FD00212020FCF71FF9002121207B
:10469000FCF71BF9322001F0E8FD0021302000E09A
:1046A00074E0FCF712F940F204613120FCF70DF9D7
:1046B00040F205313220FCF708F900213520FCF7E3
:1046C00004F940F609413620FCF7FFF84FF4017178
:1046D0003720FCF7FAF840F201313820FCF7F5F802
:1046E00040F207713920FCF7F0F800213C20FCF77C
:1046F000ECF840F60A213D20FCF7E7F8322001F003
:10470000B4FD00215020FCF7E0F8EF215120FCF728
:10471000DCF800215220FCF7D8F840F23F1153207A
:10472000FCF7D3F84FF427416020FCF7CEF80121C5
:104730006120FCF7CAF800216A20FCF7C6F80021C6
:104740008020FCF7C2F800218120FCF7BEF8002190
:104750008220FCF7BAF800218320FCF7B6F800218C
:104760008420FCF7B2F800218520FCF7AEF8102178
:104770009020FCF7AAF84FF4C0619220FCF7A5F84E
:1047800040F233110720FCF7A0F824E61148808896
:1047900049F2253188427CD147F6F001E520FCF74B
:1047A00094F84FF480710120FCF78FF84FF4E0612A
:1047B0000220FCF78AF841F230010320FCF785F86B
:1047C00000210420FCF781F840F202210820FCF7C8
:1047D0007CF801E0C409002000210920FCF775F8ED
:1047E00000210A20FCF771F800210C20FCF76DF87D
:1047F00000210D20FCF769F800210F20FCF765F877
:1048000000211020FCF761F807211120FCF75DF86A
:1048100000211220FCF759F800211320FCF755F86D
:1048200000210720FCF751F841F290611020FCF7BD
:104830004CF840F227211120FCF747F89D21122067
:10484000FCF743F84FF4C8511320FCF73EF825213C
:104850002920FCF73AF80D212B20FCF736F8072128
:104860003020FCF732F840F203313120FCF72DF80C
:1048700003213220FCF729F840F206213520FCF70D
:1048800024F808213620FCF720F840F206413720B2
:1048900000E05CE0FCF719F84FF441713820FCF7B8
:1048A00014F807213920FCF710F840F202613C208F
:1048B000FCF70BF808213D20FCF707F800215020F9
:1048C000FCF703F8EF215120FBF7FFFF00215220F6
:1048D000FBF7FBFF40F23F115320FBF7F6FF4FF4CD
:1048E00027416020FBF7F1FF01216120FBF7EDFF7D
:1048F00000216A20FBF7E9FF00218020FBF7E5FF9C
:1049000000218120FBF7E1FF00218220FBF7DDFF82
:1049100000218320FBF7D9FF00218420FBF7D5FF7E
:1049200000218520FBF7D1FF10219020FBF7CDFF60
:104930004FF4C0619220FBF7C8FF40F2331107200B
:10494000FBF7C3FF22210020FBF7BFFF43E5FE4832
:10495000808849F2283188427ED141F28F01EC20D3
:10496000FBF7B3FF41F23421EF20FBF7AEFF4FF42A
:1049700080710120FBF7A9FF4FF4E0610220FBF7F3
:10498000A4FF41F230010320FBF79FFF0021042028
:10499000FBF79BFF40F202210820FBF796FF002166
:1049A0000920FBF792FF00210A20FBF78EFF01216F
:1049B0000C20FBF78AFF00210D20FBF786FF00216A
:1049C0000F20FBF782FF00211020FBF77EFF07215D
:1049D0001120FBF77AFF00211220FBF776FF002160
:1049E0001320FBF772FF01210720FBF76EFF322037
:1049F00001F03BFC41F290411020FBF766FF40F2D2
:104A000027211120FBF761FF322001F02EFC8A21C3
:104A10001220FBF75AFF322001F027FC4FF4D0514F
:104A20001320FBF752FF06212920FBF74EFF0D2133
:104A30002B20FBF74AFF322001F017FC0021202039
:104A4000FBF743FF00212120FBF73FFF322001F05D
:104A50000CFC0021302000E074E0FBF736FF40F250
:104A600004613120FBF731FF40F205313220FBF7C2
:104A70002CFF00213520FBF728FF40F609413620A6
:104A8000FBF723FF4FF401713720FBF71EFF40F2C5
:104A900001313820FBF719FF40F207713920FBF78D
:104AA00014FF00213C20FBF710FF40F60A213D20B7
:104AB000FBF70BFF322001F0D8FB00215020FBF761
:104AC00004FFEF215120FBF700FF00215220FBF7EC
:104AD000FCFE40F23F115320FBF7F7FE4FF4274155
:104AE0006020FBF7F2FE01216120FBF7EEFE0021C2
:104AF0006A20FBF7EAFE00218020FBF7E6FE00219A
:104B00008120FBF7E2FE00218220FBF7DEFE002180
:104B10008320FBF7DAFE00218420FBF7D6FE00217C
:104B20008520FBF7D2FE10219020FBF7CEFE4FF43C
:104B3000C0619220FBF7C9FE40F233110720FBF75A
:104B4000C4FE48E48048808849F2203188427DD103
:104B500000210846FBF7B9FE4FF480710120FBF7F6
:104B6000B4FE4FF4E0610220FBF7AFFE41F23001EA
:104B70000320FBF7AAFE00210420FBF7A6FE40F26B
:104B800002210820FBF7A1FE00210920FBF79DFE72
:104B900000210A20FBF799FE01210C20FBF795FE6E
:104BA00000210D20FBF791FE00210F20FBF78DFE69
:104BB000322001F05AFB40F201110720FBF785FE7D
:104BC000322001F052FB4FF486511020FBF77DFE9E
:104BD00007211120FBF779FE4FF488711220FBF7B3
:104BE00074FE4FF430611320FBF76FFE0021292083
:104BF000FBF76BFE44F210012B20FBF766FE002151
:104C00005020FBF762FEEF215120FBF75EFE0021F2
:104C10005220FBF75AFE40F23F115320FBF755FE9E
:104C20004FF41C516020FBF750FE01216120FBF77F
:104C30004CFE00216A20FBF748FE00218020FBF794
:104C400044FE00218120FBF740FE00E02EE0002121
:104C50008220FBF73AFE00218320FBF736FE00217D
:104C60008420FBF732FE00218520FBF72EFE102169
:104C70009020FBF72AFE00219220FBF726FE01215F
:104C80009320FBF722FE4FF488719520FBF71DFE61
:104C900000219720FBF719FE00219820FBF715FE55
:104CA00040F273110720FBF710FE73E4264880885A
:104CB00049F2313188427DD141F21401E720FBF7FE
:104CC00004FE4FF480710120FBF7FFFD4FF40071EB
:104CD0000220FBF7FAFD41F238010320FBF7F5FD56
:104CE00040F202210820FBF7F0FD00210920FBF72C
:104CF000ECFD00210A20FBF7E8FD00210C20FBF76A
:104D0000E4FD00210D20FBF7E0FD00210F20FBF763
:104D1000DCFD00211020FBF7D8FD07211120FBF757
:104D2000D4FD00211220FBF7D0FD00211320FBF75A
:104D3000CCFDC82001F099FA41F290611020FBF7F8
:104D4000C4FD40F2272101E0C40900201120FBF737
:104D5000BCFD322001F089FA0C211220FBF7B5FDD1
:104D6000322001F082FA4FF400611320FBF7ADFD11
:104D700011212920FBF7A9FD0B212B20FBF7A5FD15
:104D8000322001F072FA00212020FBF79EFD40F254
:104D90003F112120FBF799FD00213020FBF795FD05
:104DA0004FF483713120FBF790FD00213220FBF797
:104DB0008CFD00E067E04FF401713520FBF785FDC5
:104DC00041F20A613620FBF780FD40F2077137207F
:104DD000FBF77BFD4FF483713820FBF776FD40F243
:104DE00007713920FBF771FD40F202413C20FBF7CF
:104DF0006CFD40F60F413D20FBF767FD0021502080
:104E0000FBF763FDEF215120FBF75FFD00215220EE
:104E1000FBF75BFD40F23F115320FBF756FD4FF4CB
:104E20001C516020FBF751FD01216120FBF74DFD76
:104E300000216A20FBF749FD00218020FBF745FD9A
:104E400000218120FBF741FD00218220FBF73DFD81
:104E500000218320FBF739FD00218420FBF735FD7D
:104E600000218520FBF731FD10219020FBF72DFD5F
:104E70004FF4C0619220FBF728FD40F23311072068
:104E8000FBF723FD81E4FE48808845F20841884213
:104E90007ED14FF480710120FBF717FD4FF4E061E4
:104EA0000220FBF712FD41F230010320FBF70DFD5C
:104EB00000210420FBF709FD40F207210820FBF741
:104EC00004FD00210920FBF700FD00210A20FBF76B
:104ED000FCFC00210C20FBF7F8FC00210D20FBF767
:104EE000F4FC00210F20FBF7F0FC142001F0BDF9C9
:104EF00041F2B0611020FBF7E8FC01211120FBF723
:104F0000E4FC01211720FBF7E0FC4FF49C71122018
:104F1000FBF7DBFC4FF400611320FBF7D6FC092103
:104F20002920FBF7D2FC09212A20FBF7CEFC002127
:104F3000A420FBF7CAFC00215020FBF7C6FCEF21A0
:104F40005120FBF7C2FC00215220FBF7BEFC40F2CF
:104F50003F115320FBF7B9FC4FF41C516020FBF7C5
:104F6000B4FC01216120FBF7B0FC00216A20FBF7B3
:104F7000ACFC00218020FBF7A8FC00218120FBF77E
:104F8000A4FC00218220FBF7A0FC0021832000E08C
:104F900023E0FBF79AFC00218420FBF796FC00211C
:104FA0008520FBF792FC13219020FBF78EFC00215B
:104FB0009220FBF78AFC03219320FBF786FC4FF439
:104FC00088719520FBF781FC40F273110720FBF7F5
:104FD0007CFC322001F049F9B8E4A948808841F20C
:104FE000055188427ED100210720FBF76EFC32205C
:104FF00001F03BF94FF48E711220FBF766FC0121A2
:10500000A420FBF762FC0F210820FBF75EFC0821BF
:105010000A20FBF75AFC08210D20FBF756FC40F252
:1050200007713020FBF751FC07213120FBF74DFCC5
:1050300040F203613220FBF748FC4FF4E06133207B
:10504000FBF743FC40F202213420FBF73EFC022137
:105050003520FBF73AFC41F60F713620FBF735FCA3
:1050600040F207713720FBF730FC00213820FBF7B6
:105070002CFC00213920FBF728FC40F207713A2074
:10508000FBF723FC00213B20FBF71FFC07213C2002
:10509000FBF71BFC00213D20FBF717FC322001F041
:1050A000E4F801210720FBF710FC01211720FBF792
:1050B0000CFC322001F0D9F84FF4BD511020FBF761
:1050C00004FC40F217211120FBF7FFFB4FF48F7116
:1050D0001220FBF7FAFB4FF470611320FBF7F5FB8E
:1050E000002100E094E02A20FBF7EFFB0A212920B1
:1050F000FBF7EBFB4FF49F711220FBF7E6FB00215F
:105100005020FBF7E2FBEF215120FBF7DEFB0021F3
:105110005220FBF7DAFB40F23F115320FBF7D5FB9F
:105120004FF41C516020FBF7D0FB01216120FBF7FD
:10513000CCFB00216A20FBF7C8FB00218020FBF795
:10514000C4FB00218120FBF7C0FB00218220FBF77C
:10515000BCFB00218320FBF7B8FB00218420FBF778
:10516000B4FB00218520FBF7B0FB13219020FBF757
:10517000ACFB4FF440719220FBF7A7FB0521932075
:10518000FBF7A3FB00219520FBF79FFB0021972055
:10519000FBF79BFB00219820FBF797FB4FF48071F6
:1051A0000120FBF792FB4FF4E0610220FBF78DFB3F
:1051B00041F238010320FBF788FB00210420FBF7B4
:1051C00084FB00210C20FBF780FB00210F20FBF764
:1051D0007CFB00212020FBF778FB00212120FBF73E
:1051E00074FB21210720FBF770FB142001F03DF830
:1051F00061210720FBF769FB142001F036F840F22B
:1052000073110720FBF761FB142001F02EF898E4DE
:105210001B4880884BF2055188427DD10021084609
:10522000FBF753FB00210846FBF74FFB0021084624
:10523000FBF74BFB00210846FBF747FB0121A420AD
:10524000FBF743FB142001F010F84FF41C516020D1
:10525000FBF73BFB40F202210820FBF736FB4FF443
:1052600005713020FBF731FB43F215713120FBF75C
:105270002CFB40F204613220FBF727FB02E0000028
:10528000C409002040F616613320FBF71EFB42F2F2
:1052900011213420FBF719FB4FF4A8513520FBF7FF
:1052A00014FB48F207513620FBF70FFB41F2074190
:1052B0003720FBF70AFB41F203413820FBF705FBDF
:1052C00020213920FBF701FB1A219020FBF7FDFA82
:1052D00000211020FBF7F9FA07211120FBF7F5FA5E
:1052E00000211220FBF7F1FA00211320FBF7EDFA61
:1052F000142000F0BAFF4FF4E6611020FBF7E5FA46
:1053000040F237111120FBF7E0FA142000F0ADFF56
:105310004FF4DC71122000E088E0FBF7D6FA14208D
:1053200000F0A3FF4FF470611320FBF7CEFA802149
:105330002A20FBF7CAFA48212920FBF7C6FA1420D5
:1053400000F093FF4FF480710120FBF7BEFA4FF499
:10535000E0610220FBF7B9FA41F238010320FBF7C4
:10536000B4FA40F202210820FBF7AFFA00210A202C
:10537000FBF7ABFA00210C20FBF7A7FA00210D2068
:10538000FBF7A3FA30210E20FBF79FFA00215020F3
:10539000FBF79BFAEF215120FBF797FA00215220EF
:1053A000FBF793FA40F23F115320FBF78EFA4FF4CC
:1053B0001C516020FBF789FA01216120FBF785FA77
:1053C00000216A20FBF781FA11219020FBF77DFA7A
:1053D0004FF4C0619220FBF778FA40F2024193202B
:1053E000FBF773FA02219420FBF76FFA142000F008
:1053F0003CFF01210720FBF768FA142000F035FF7D
:1054000061210720FBF761FA40F273110720FBF7D7
:105410005CFA00212020FBF758FA00212120FBF73D
:1054200054FA22210020FBF750FA13E3FE4880884B
:105430004CF2055188427CD100210846FBF745FA21
:1054400000210846FBF741FA142000F00EFF00216E
:105450000846FBF73AFA00210846FBF736FA002126
:105460000846FBF732FA00210846FBF72EFA012125
:10547000A420FBF72AFA142000F0F7FE4FF41C5189
:105480006020FBF722FA40F606010820FBF71DFA20
:1054900040F203713020FBF718FA01213120FBF7AD
:1054A00014FA04213220FBF710FA4FF481713320F3
:1054B000FBF70BFA4FF440713420FBF706FA40F289
:1054C00003113520FBF701FA1F213620FBF7FDF908
:1054D00040F203713720FBF7F8F901213820FBF780
:1054E000F4F904213920FBF7F0F915219020FBF79E
:1054F000ECF94FF482611020FBF7E7F940F2472105
:105500001120FBF7E2F94FF4DE711220FBF7DDF911
:105510004FF460611320FBF7D8F9782000F0A5FE66
:105520004FF480710120FBF7D0F94FF40071022095
:1055300000E052E0FBF7C9F941F230010320FBF72C
:10554000C4F908210A20FBF7C0F900210C20FBF761
:10555000BCF920210E20FBF7B8F900210F20FBF742
:10556000B4F900212020FBF7B0F900212120FBF73E
:10557000ACF93D212A20FBF7A8F9142000F075FEB4
:105580002D212920FBF7A1F900215020FBF79DF9DF
:105590004DF2EF015120FBF798F900215220FBF763
:1055A00094F940F23F115320FBF78FF9002161205D
:1055B000FBF78BF900216A20FBF787F94FF4407164
:1055C0009220FBF782F905219320FBF77EF94FF437
:1055D00080710720FBF779F93CE29348808848F610
:1055E000891188427DD101210020FBF76EF94AF62E
:1055F000A4010320FBF769F900210C20FBF765F9F2
:1056000040F60C010D20FBF760F94FF42C510E20F1
:10561000FBF75BF9B0211E20FBF757F942F63F314B
:105620000120FBF752F94FF4C0610220FBF74DF95E
:1056300000211020FBF749F946F278011120FBF711
:1056400044F900210520FBF740F900210620FBF773
:105650003CF94EF61C711620FBF737F90321172091
:10566000FBF733F940F233210720FBF72EF9002135
:105670000B20FBF72AF900210F20FBF726F9002168
:105680004120FBF722F900214220FBF71EF90021FF
:105690004820FBF71AF940F23F114920FBF715F9B2
:1056A00000214A20FBF711F900214B20FBF70DF9EF
:1056B0004FF46F414420FBF708F900214520FBF728
:1056C00004F940F23F114620FBF7FFF840F2077162
:1056D0003020FBF7FAF84FF401713120FBF7F5F8B1
:1056E00000E03DE04FF401713220FBF7EEF840F2AC
:1056F00002513320FBF7E9F840F207513420FBF761
:10570000E4F84FF401713520FBF7DFF84FF4017135
:105710003620FBF7DAF840F202513720FBF7D5F8D4
:1057200040F202313A20FBF7D0F840F202313B2040
:10573000FBF7CBF800212320FBF7C7F8002124203A
:10574000FBF7C3F84FF400412520FBF7BEF800211A
:105750004F20FBF7BAF800214E20FBF7B6F879E1AD
:105760003148808844F2315188427CD101210020A7
:10577000FBF7ABF80A2000F078FD41F22861102019
:10578000FBF7A3F80E211220FBF79FF840F6392112
:105790001320FBF79AF80A2000F067FD4021112042
:1057A000FBF793F850211520FBF78FF80A2000F043
:1057B0005CFD1E211220FBF788F80A2000F055FD41
:1057C0004FF4B1511020FBF780F842F63921132035
:1057D000FBF77BF80A2000F048FD4FF480710120B0
:1057E000FBF773F84FF440710220FBF76EF841F2BB
:1057F00038010320FBF769F840F202210820FBF78B
:1058000064F808210A20FBF760F800213020FBF73C
:105810005CF840F202413120FBF757F84FF48371F6
:105820003220FBF752F801E0C409002040F2035196
:105830003320FBF74AF84FF482713420FBF745F828
:1058400040F201313520FBF740F840F20771362075
:10585000FBF73BF840F205313720FBF736F84FF401
:105860000271382000E040E0FBF72FF840F60B71A2
:105870003920FBF72AF802214120FBF726F84FF4E4
:105880001C516020FBF721F801216120FBF71DF876
:105890004FF404719020FBF718F84FF485719220B3
:1058A000FBF713F804219320FBF70FF84FF48071F6
:1058B000A020FBF70AF801210720FBF706F82121B9
:1058C0000720FBF702F823210720FAF7FEFF332118
:1058D0000720FAF7FAFF40F233110720FAF7F5FF35
:1058E0000021A020FAF7F1FFB4E0F748808844F2E5
:1058F00035518842F8D130211520FAF7E6FF102102
:105900009A20FAF7E2FF20211120FAF7DEFF43F296
:1059100028411020FAF7D9FF02211220FAF7D5FF0B
:1059200041F238011320FAF7D0FF282000F09DFC47
:1059300012210846FAF7C9FF282000F096FC43F22E
:1059400020411020FAF7C1FF43F238011320FAF783
:10595000BCFF462000F089FC00213020FAF7B5FF9B
:1059600040F202413120FAF7B0FF40F20731322015
:10597000FAF7ABFF4FF441713320FAF7A6FF042189
:105980003420FAF7A2FF40F201413520FAF79DFFDB
:1059900040F207713620FAF798FF40F205313720C0
:1059A000FAF793FF4FF4C2613820FAF78EFF4FF4F5
:1059B000C2613920FAF789FF4FF480710120FAF7AC
:1059C00084FF4FF440710220FAF77FFF41F230016B
:1059D0000320FAF77AFF40F608010820FAF775FF6E
:1059E00008210A20FAF771FF4FF41C516020FAF7E2
:1059F0006CFF01216120FAF768FF4FF49F7190203E
:105A0000FAF763FF4FF480719220FAF75EFF4FF4CC
:105A100080719320FAF759FF4FF44051A020FAF714
:105A200054FF1021A320FAF750FF01210720FAF7B5
:105A30004CFF21210720FAF748FF23210720FAF71E
:105A400044FF33210720FAF740FF40F233110720CB
:105A5000FAF73BFF0020FBF778FF01209B49086025
:105A60004FF6FF70FCF7A1FA08BD2DE9FC5F054673
:105A70000E4617469846DDF8309000200190924877
:105A8000808846F60401884229D18F488079012810
:105A900025D1AB4635468C480088C01B401E86B2D7
:105AA000474689480088A0EB0B00401E1FFA80F88B
:105AB0000020854988712A2048812B20888143460F
:105AC0003A4631462846CDF80090FFF7CEFF012038
:105AD0007D4988712B2048812A20888134E0781BF9
